:020000040800F2
:10000000E00B0020ED010008B3420008613C00084D
:10001000B14200088D080008414D000800000000B2
:10002000000000000000000000000000EF45000894
:100030004F09000800000000ED45000831460008A7
:10004000070200080702000807020008070200086C
:10005000070200080702000807020008070200085C
:1000600007020008070200080702000891080008BC
:10007000070200080702000807020008070200083C
:10008000070200080702000807020008070200082C
:10009000070200080702000807020008070200081C
:1000A000070200080702000807020008070200080C
:1000B000B946000807020008070200080702000806
:1000C00007020008070200080702000807020008EC
:1000D00007020008354D0008070200080702000863
:1000E00007020008070200080702000807020008CC
:1000F00007020008070200080702000807020008BC
:1001000007020008070200080702000807020008AB
:10011000070200080702000807020008070200089B
:10012000070200080702000807020008070200088B
:10013000070200080702000807020008070200087B
:100140000702000807020008070200081D3C00081B
:10015000070200080702000807020008070200085B
:10016000070200080702000807020008070200084B
:10017000070200080702000807020008070200083B
:10018000070200080702000807020008070200082B
:10019000070200080000000007020008070200082C
:1001A000070200080702000807020008070200080B
:1001B00007020008070200080702000807020008FB
:1001C00007020008070200080702000807020008EB
:1001D0000702000807020008DFF80CD000F068FAF8
:1001E00000480047694D0008E00B002006488047A2
:1001F00006480047FEE7FEE7FEE7FEE7FEE7FEE70C
:10020000FEE7FEE7FEE7FEE7A9460008D901000881
:100210002DE9F05F0546002092469B46884606463B
:10022000814640241BE0284641464746224600F0CE
:1002300089F953465A46C01A914110D311461846BF
:10024000224600F070F92D1A67EB01084F4622464E
:100250000120002100F067F917EB00094E41201E34
:10026000A4F10104DFDC484631462A464346BDE896
:10027000F09FD2B201E000F8012B491EFBD270477B
:100280000022F6E710B513460A4604461946FFF762
:10029000F0FF204610BD2DE9FE4F804681EA0300A5
:1002A000C00F0C46009021F0004123F00045B8EB50
:1002B0000200A94105D24046214690461C460B4605
:1002C000024623F00040104347D0270DC7F30A0031
:1002D000C3F30A510290401A019040286BDAC3F32D
:1002E000130040F4801B0098924620B10023D2EB0B
:1002F000030A63EB0B0B01985946C0F140025046CC
:1003000000F011F906460D4650465946019A00F094
:1003100029F910EB08006141002487EA115284EAB0
:10032000E7731A4340D0009A62B3019A012A4FEA58
:10033000075215DC001B61EB02014FF0004202EA9C
:100340000752CDE90042001C41F5801132462B4690
:1003500000F060F903B0BDE8F08F40462146F9E7B0
:10036000001B61EB0201001C41F5801300185B418A
:100370002018A2F5001747EB030140EAD570B61923
:100380006D4111E06D084FEA360645EAC0754FEA47
:100390000752001B61EB0201001C41F58011490866
:1003A0004FEA30000019514132462B4603B0BDE8F8
:1003B000F04F00F020B90098012240000023D0EB5C
:1003C000020263EBE073009821464FEAE074B8EB59
:1003D000000061EB0401E9E783F000435BE781F093
:1003E000004158E72DE9FE4F81EA030404F0004480
:1003F00021F0004100944FF0000B23F0004350EA3D
:1004000001045ED052EA03045BD0C3F30A54C1F383
:100410000A552C44A4F2F3340194A0FB0254C1F316
:10042000130141F48011C3F3130343F4801301FB60
:10043000024400FB034E840A970A44EA815447EAC7
:100440008357A4FB076802958D0A05FB07854FEAD1
:10045000932C04FB0C542705029D4FEA065847EAEB
:100460001637B5EB08056EEB070C870E920E47EAC0
:10047000811742EA8312A7FB0201B6EB0B0164EB82
:1004800000042B0D43EA0C335E1844EB1C50DA4693
:100490005146E7FB0201C5F313044FEA0B3343EA6D
:1004A00014534FEA0432019C43EA0603A4F10C04FE
:1004B0000294009CCDE900B400F0ACF803B0BDE8B4
:1004C000F08F00200146F9E700F0004230F00040D4
:1004D0000AD0C10D01F56071C0F3160042EA015166
:1004E000C20840071143704700200146704701F0E1
:1004F000004330B421F0004150EA010206D00A0D59
:10050000A2F56072C1F31301002A02DC30BC0020A6
:100510007047440F44EAC104C100E01830BC00EB4E
:10052000C25000F031B8202A04DB203A00FA02F170
:10053000002070479140C2F1200320FA03F31943D1
:1005400090407047202A04DB203A21FA02F0002173
:10055000704721FA02F3D040C2F1200291400843D3
:1005600019467047202A06DBCB17203A41FA02F0E1
:1005700043EAE07306E041FA02F3D040C2F1200200
:1005800091400843194670470029A8BF7047401C96
:10059000490008BF20F00100704710B4B0FA80FC99
:1005A00000FA0CF050EA010404BF10BC704749B1D6
:1005B000CCF1200421FA04F411FA0CF118BF012146
:1005C00021430843A3EB0C01CB1D4FEA00614FEA26
:1005D000102042BF002010BC704700EBC3501044F5
:1005E0000029A4BF10BC7047401C490008BF20F080
:1005F000010010BC704710B5141E73F1000408DA36
:10060000401C41F1000192185B411A4301D120F0D6
:10061000010010BD2DE9F04D92469B4611B1B1FA93
:1006200081F202E0B0FA80F220329046FFF77BFFC1
:1006300004460F4640EA0A0041EA0B0153465A4677
:10064000084313D0114653EA010019D0C8F1400203
:100650005046FFF777FF05460E465046594642463C
:10066000FFF761FF084305D0012004E0204639462A
:10067000BDE8F08D0020054346EAE0762C43374381
:100680000A986305E40AA0EB08000022FD0A44EA88
:1006900047540A3002D500200146E9E70105101948
:1006A0006941DDE9084500196941BDE8F04DA2E75F
:1006B000064C074D06E0E06840F0010394E80700AF
:1006C00098471034AC42F6D3FFF78AFDC05A0008B1
:1006D000E05A00080146806AC36DC26D13F0500FE6
:1006E00007D0D20648BF00F0B1BB406D426B084650
:1006F000104742F40071C16501680B68CA6813F0C5
:10070000080F0FD191070BD4C16D21F48071C16521
:10071000C16D11F4805F02BFC16D41F00101C1657F
:1007200000F092BB12F4406F18BF00F08DBBC96897
:1007300011F4005FE8D0F3E7806AC16D41F0400139
:10074000C165016E41F00401016600F07FBB806A63
:1007500000F07BBBB0B50168044600208B688A6856
:1007600013F0020F2DD112F0010208BFB0BD88684E
:1007700000F00D0001281BD18868414A104040F06C
:10078000020088600320086000F0AEFF0546206884
:10079000806810F0010F04BF0020B0BD00F0A4FF7E
:1007A000401B0328F3D32068806810F0010FEED0BF
:1007B000E06D40F01000E065206E40F00100206622
:1007C0000120B0BD7CB504460020019021688A68F4
:1007D00012F0010F52D12A4E886806F17F021042B2
:1007E00009D0E06D40F01000E065206E40F001009F
:1007F0002066012042E08868304040F001008860B7
:10080000BA4800F500728142134618BF00F5C06374
:10081000B1F1A04F08BF1346986810F4000F10D034
:10082000184819490068B0FBF1F00C2100EB4000BA
:1008300001EB800001E00198013801900198002847
:10084000F9D100F051FF05462068016811F0010F51
:1008500013D1816811F0010F04D18168314041F05A
:100860000101816000F040FF401B0328ECD32068A9
:10087000006810F0010FE7D1B3E7002002B070BDAF
:10088000C0FFFF7F18000020400D0300FEE70000BE
:10089000014800F041BD00BF4C05002010B5104CD0
:1008A00004F18002A4F57E712034C2640268436CB6
:1008B0008A4223F003013CBF40F60004C4F2020464
:1008C000214481646FF0070151FA82F11422B1FBD7
:1008D000F2F1012201F01F0102FA01F1016510BDE0
:1008E00000080240037907490122013B01F1400C55
:1008F00001EB830103F01F039A40C0E9151CC26598
:10090000704700BF0009024010B5D0E913CE0124A2
:10091000CCF804E0D0F854C0BCF1000F1CBFD0E903
:1009200016CECCF804E0D0E910CE0EF01F0E04FA7B
:100930000EF4CCF804400468636080681028084610
:1009400008BF1046A06008BF0A46E26010BD7047AD
:10095000EFF3108072B6FEE7BCB5044600200D46EA
:10096000019094F85800012801D1022034E00120C0
:1009700084F858002046FFF7EDFEE16D10B141F01C
:10098000100125E041F20212144B914341F00201A3
:10099000E16521688A681A4005F080431A4342F0F5
:1009A00000428A600E4A8B68B3F1FF3F0CDC019B6A
:1009B00001330193019B9342F5D3E06D20F01200C7
:1009C00040F01001012003E0E16D012262F301011A
:1009D000002284F85820E16502B0B0BDC0FFFF3F9F
:1009E00002DE040090F85820012A01D1022177E0AC
:1009F0007CB501223B4E80F85820002201920092E3
:100A000006F1F8040368B3F1A04F05D0364A9342CB
:100A10002BD106F59F6200E0224692689D682A432A
:100A2000520722D406F53E72A342154618BF06F5BA
:100A3000DF65B3F1A04F08BF1546D1F800C0AA6822
:100A4000BCF1000F22F4604415D04A68224390F8AC
:100A5000384042EA4432AA6043F48072F44B9A422E
:100A600013D13368D6F800E117E0C16D41F02001E1
:100A7000C16501212FE0EE4A43F48071AC609142E0
:100A800018D13168D6F800311CE0D6F80024D6F829
:100A9000003543EA020ED6F800364EEA0302D207CA
:100AA00018D1AA68896840F61F739A4341EA0C017D
:100AB00011430EE0D6F80014D6F8002542EA0103EF
:100AC000D6F800161943C90704D1A96840F61F7269
:100AD0009143A9600021002280F85820BDE87C40A5
:100AE000C8B27047080000500004005000010050D8
:100AF000F8B5044600200D46009094F858000128EF
:100B000001D1022387E1012084F858002068816820
:100B100011F0040F26D1D5E900121F2702F01F03A0
:100B2000C2F3012200EB82029F40166BC1F3846185
:100B3000994026EA07073943116381688268D20821
:100B400042EA9101C90740F09880AA682968B2F189
:100B5000004F0DD1002203F0C5F92068416941F032
:100B600000410BE0E06D012340F02000E0654FE123
:100B700003F0B8F92068416921F000414161D5E9ED
:100B80000412C36804294DD1016E036E2A68A4497A
:100B9000C2F3846792FAA2F60A4218BFB6FA86F741
:100BA000C3F38463BB4204D1026E22F000420266AA
:100BB0002A68436E92FAA2F70A42C2F3846318BF0E
:100BC000B7FA87F3476EC7F384679F4204D1426E3A
:100BD00022F0004242662A68836E92FAA2F70A4225
:100BE000C2F3846318BFB7FA87F3876EC7F38467CD
:100BF0009F4204D1826E22F0004282662A68C36E50
:100C000092FAA2F70A42C2F3846318BFB7FA87F3D5
:100C1000C16EC1F38461994202BFC16E21F00041EF
:100C2000C1662AE000F16006D5F800C07B4F56F897
:100C300021E00EEA070E062707EA93039A400CF01C
:100C4000F8431A4342EA0E0242F0004246F82120DD
:100C50002969AA6956F8213023F080731A4346F8AF
:100C600021202A69297F56F82230012923F00073B8
:100C700008BF43F0007346F82230816811F0010F7D
:100C800062D12968664EEB68D0F8B070CA4362EA58
:100C90000602174003F01802D6400A466FF3DF42FF
:100CA000164037435F4EC0F8B070B3424CD191FA52
:100CB000A1F3002A4FEA9167B3FA83F6334608BFDF
:100CC0008B0E013303F01E03092B0AD8A2B1711C4D
:100CD0004FF0F84202EA816301F01F0201219140C6
:100CE00015E0D2B1711C4FF0F84202EA816301F0C5
:100CF0001F02012191401BE07A1C01F0F841012301
:100D000001F1806102F01F02934001F0F8411943A4
:100D100002EB420241EA025113E07A1C01F0F84171
:100D2000012301F1806102F01F02934001F0F841BC
:100D300019433D4B02EB420203EB0252114341F0D7
:100D40000071AA6803F0CEF82868384908425ED0DE
:100D5000BF4B2568374F03F500719D429E460A46FA
:100D600018BF03F5C062B5F1A04F134608BF0B468C
:100D7000B8429E6806F0E07C02D02F4FB84222D1E4
:100D8000300244D4B5F1A04F03D02C4885423ED167
:100D90001146886820F0E07040EA0C0040F4000042
:100DA0008860A848A8490068B0FBF1F00C2100EB6E
:100DB000400001EB800001E00098013800900098AD
:100DC0000028F9D123E01E4FB84208BF16F0807703
:100DD00015D01C4F0023B84208BF16F4800017D16D
:100DE000B5F1A04F02D0754511D01146886820F0AA
:100DF000E07040EA0C0040F48000886007E09868EA
:100E000020F0E07040EA0C0040F080709860002311
:100E1000002084F85800D8B201B0F0BD00F0FF0304
:100E2000FFFF070000007F40000020FE0000088058
:100E300000010050000021C31000C09000060050C7
:100E4000000052C7000084CB704770477047000015
:100E50007CB504460020002C01903AD0E06D30B9FA
:100E6000204600F0FBF8002084F858002066216836
:100E7000886810F0005F03D08868714A104088606D
:100E8000886810F0805F16D16D4A886802F1805240
:100E900010406D4A40F0805088606A480068B0FB9E
:100EA000F2F0022202EB400001E0019801380190CB
:100EB00001980028F9D1886810F0805F0BD1E06DAF
:100EC00040F01000E065206E40F001002066012037
:100ED00002E00120B1E000208A68C2F38002E36DE5
:100EE00003F010031343E36D03D043F0100101201E
:100EF000A2E023F4817343F00203E3658B6813F0EF
:100F0000010F26D1C64D41F48073504EAB4203D140
:100F10003368D6F8005106E0D6F80034D6F800550C
:100F20001D43D6F800362B43DB0712D106F1F80338
:100F300006F53E7599422B4618BF06F5DF63B1F101
:100F4000A04F08BF2B4666689D6825F47C152E438C
:100F50009E60637FE66B46EA4333D4E902652B4328
:100F6000334394F8246043EA0643012E04D1A66A71
:100F7000384D05EB46463343E66A26B106F47876EB
:100F80003343266B3343CE68334D2E403343CB601F
:100F90000B69666B23F0406333430B618B68C3F3CB
:100FA000C0031A433AD194F83830227FCE6844F215
:100FB00002055B00AE4343EA82323243CA602269D3
:100FC0000B694AB143F4803343F6FF760B61D1F8E5
:100FD000C030B3431A4307E023F4803243F6FF7373
:100FE0000A61D1F8C0209A43C1F8C02094F840307B
:100FF0000A69012B0FD140F2FD7322EA030CD4E9F8
:101000001136D4E9135243EA0C0333432B431A43FA
:1010100042F0010201E022F001020A6163690A6BF9
:1010200022F00F02012B02BF236A013B1A430A631D
:101030000122E16D62F30101E16502B070BD00BF04
:10104000C0FFFF5F18000020400D030008000050A3
:10105000000100500000FEFF0740F0FF70B59CB09B
:10106000044617A81421FFF70BF902A85421FFF733
:1010700007F92068B0F1A04F45D14FF00050139010
:101080004FF40040029002A801F084FB08B1FFF782
:101090005FFC1E480026016841F4005101600168B0
:1010A00001F4005101910199016841F001010160D1
:1010B00017A9006800F00100019001980320CDE914
:1010C00017004FF09040199600F032FA104D114978
:1010D000052080224FF480734FF4806C4FF0200E77
:1010E000C5E9001005F11000C5E9026680E80C5062
:1010F0004FF400502862284600F064F908B1FFF769
:1011000027FC6565AC621CB070BD00BF4C1002408E
:101110004C050020080002402DE9F041404F0446F4
:1011200000680E46904607F50071B8420A4618BF9F
:1011300007F5C062B0F1A04F08BF0A469168826807
:1011400012F0040F03D194F85820012A02D1022092
:10115000BDE8F08101F01F05012184F8581007F562
:10116000A061884207D0092D1ED8012040F221211C
:10117000A840084218D02046FFF724FB20B10021E8
:1011800084F85810BDE8F0812168E06D40F60172E6
:101190009043B94240F48070E0650BD02148814211
:1011A0000DD107F5407007E0002084F858000120B9
:1011B000BDE8F0814FF0A0400DB1884203D1E06D51
:1011C00020F48010E065E06D174B184F184D002299
:1011D00010F4805F4FF000001CBF206E20F006006E
:1011E0002066606DC0E90B731C2345630B6084F8B7
:1011F000582043464A6842F010024A60CA6842F0EA
:101200000102CA604031324600F03CF92168094BC6
:101210008A681A4042F004028A60BDE8F08100BF8B
:1012200000010050000500504F070008D5060008D7
:1012300039070008C0FFFF7F90F82510022923D14D
:1012400001680A6822F00E020A60826C136823F4B7
:101250008073136001230A6822F001020A60D0E95A
:10126000101202F01F0203FA02F24A60D0E91312D0
:101270004A60416D31B10A6822F480720A60D0E997
:1012800016124A60002102E00421C16301210022FC
:1012900080F82420012280F825200846704790F825
:1012A000251002292ED101680A6822F00E020A6078
:1012B0000A6822F001020A60816C0A6822F48072D6
:1012C0000A60D0E9101202F01F03012202FA03F3B0
:1012D0004B60D0E913134B60416D31B10B6823F4BF
:1012E00080730B60D0E916134B60002180F8241046
:1012F00080F82520826B6AB180B590470021BDE857
:10130000804007E00421C163002180F824100121FE
:1013100080F8251008467047B0B5D0E910C4DCF855
:101320000010026804F01F0E136813F0040F1EBFB4
:10133000042404FA0EF414EA010519D19C0723D5FC
:10134000022404FA0EF414EA01051DD0116811F00C
:10135000200F06D1116821F00A011160012180F8E7
:1013600025100021CCF8044080F82410C16A23E045
:10137000116811F0200F02BF116821F00401116003
:10138000CCF80440016B17E01B0719D5082303FABA
:101390000EF3194008BFB0BD116821F00E011160B5
:1013A000012101FA0EF2CCF804200022C16380F87A
:1013B000242080F82510416B11B1BDE8B0400847EA
:1013C000B0BD0000F8B50446002848D002202B49E3
:1013D000142304F1180784F82500206801F108029D
:1013E0009042274A38BFA1F5806138BF02F580627C
:1013F0000244B2FBF3F29200C4E9101247F6F07215
:10140000016821EA020CD4E90223D4E9041EE0CFEA
:1014100042EA0C021A43114341EA0E0129433143C7
:10142000394301602046FFF739FAA068B0F5804FD4
:1014300006BF002060606068A16CC2B201380A601B
:101440000328D4E913124A600BD82046FFF74AFA62
:10145000606D00210160D4E91601416005E00120C2
:101460000AE00020C4E91500E06500200121E063E6
:1014700084F8240084F8251001B0F0BD0004024077
:10148000F8FBFDBF10B5044690F82400012820D0D9
:10149000012084F8240094F82500012816D10220A8
:1014A00084F825000020E063D4F800C0DCF80000D8
:1014B00020F00100CCF800002046FFF725FA206854
:1014C000226B01683AB141F00E010AE0002084F875
:1014D000240002201AE021F004010160016841F0BB
:1014E0000A010160A16C0A6812F4803F1EBF0A68FD
:1014F00042F480720A60616D19B10A6842F4807228
:101500000A60016841F0010101600020C0B210BD15
:10151000B0B5044600F0E8F805467548611C40681F
:1015200018BF044400F0E0F8401BA042FAD3B0BD5D
:101530002DE9FC4F5F4A06274FF0000A4FF00108E3
:101540004FF003094FF0000B0025904200F13842A4
:101550004FEAB22308BF0527052B38BF4FEAB22751
:1015600000970C6834FA05F308BFBDE8FC8F08FA51
:1015700005F314EA030600F096804F6807F00304B1
:10158000621E012A15D8D0F808C009FA0BF22CEA1D
:10159000020CCA6802FA0BF242EA0C028260C7F33C
:1015A000001202FA05FC42689A4342EA0C024260C9
:1015B00001E0032C1DD0C36809FA0BF2022C23EAC8
:1015C00002028B6803FA0BF342EA0302C26010D1F5
:1015D0003C4C0AF01C020F23934004EA55070744D1
:1015E0003C6A24EA03030C6904FA02F21A433A62E1
:1015F0004F68046807F0030209FA0BF317F4403F41
:1016000002FA0BF224EA030342EA030202604AD020
:101610002B4A0AF00C070F24BC401346126842F014
:1016200001021A601A68244B02F001029C460192E2
:1016300025F003021A44019B234B9E46D358A34333
:10164000009C04FA07F73B4342F80E30DCF8082010
:101650004F6842EA060317F4801F08BF22EA060318
:10166000164A17F4001FCCF808301446126842EAF4
:10167000060308BF22EA060317F4003F2360DCF8E4
:10168000042042EA060308BF22EA060317F4803F5B
:10169000CCF80430DCF8002042EA060308BF22EA56
:1016A0000603CCF800300AF1040A0BF1020B0135F5
:1016B00057E700BF00140048000401400C0401403B
:1016C00060100240FCFFFF7F08FCFFFF426902EA56
:1016D0000103914341EA0341816170471823002AC5
:1016E00008BF2823C150704701488068704700BF79
:1016F0000C00002090F8DD30022B01D1022372E0B3
:1017000090F8DCC00223BCF1010F6CD080F8DD3012
:10171000012380F8DC304B1E072B13D9102936D05B
:1017200020293CD0402940D0802944D0B1F5807F89
:1017300047D0B1F5007F11D10168D1F8043462F3CC
:101740001C6343E0DFE803F004110A170A0A0A1DCC
:101750000168D1F8003462F304031DE0002180F831
:10176000DC10072180F8DD1032E00168D1F8003488
:1017700062F38A1310E00168D1F8003462F3103389
:101780000AE00168D1F8003462F3964304E001688E
:10179000D1F8003462F31C63C1F8003418E001682A
:1017A000D1F8043462F3040310E00168D1F8043482
:1017B00062F38A130AE00168D1F8043462F310334B
:1017C00004E00168D1F8043462F39643C1F80434AC
:1017D00090F8DD100123072905D0002180F8DC10E6
:1017E00080F8DD300023D8B270470000B0B590F823
:1017F000DD30022B01D10223D4E090F8DC4002233B
:10180000012C00F0CF8080F8DD3001234C1E80F8E1
:10181000DC30072C0368D3F880C3D3F8FCE325D968
:10182000102952D0202965D0402900F074808029E9
:1018300000F08280B1F5807F00F08F80B1F5007FED
:1018400021D11468D3F8F85325F0F845C3F8F853BC
:101850005268D3F8F85302F01F0245EA8262C3F8D7
:10186000F823C4F30B4262F3165E88E0DFE804F06D
:1018700004120B1B0B0B0B2454885268C3F8BC23B7
:1018800064F3124C7BE0002280F8DC20072280F811
:10189000DD2074E0D2E90042C3F8C023C4F30C4257
:1018A00062F3D54C6BE0D2E90042C3F8C423C4F321
:1018B000094262F3985C62E0D2E90042C3F8C823AF
:1018C000C4F3064262F35B6C59E05488D3F8F853D2
:1018D00025F01F05C3F8F8535268D3F8F85302F007
:1018E0001F022A43C3F8F8234FEADE0262F3DF0443
:1018F000A64644E05488D3F8F85325F4787564F389
:10190000061EC3F8F8535268D3F8F85302F01F02CA
:1019100045EA421231E05488D3F8F85325F4F845EB
:1019200064F30A2EC3F8F8535268D3F8F85302F060
:101930001F0245EA822220E05488D3F8F85325F4A8
:10194000F81564F30E3EC3F8F8535268D3F8F85311
:1019500002F01F0245EA02420FE05488D3F8F85320
:1019600025F0787564F3124EC3F8F8535268D3F833
:10197000F85302F01F0245EA4252C3F8F82390F8E8
:10198000DD20072A01D101230CE00F294FF00101CE
:101990008CBFC3F8FCE3C3F880C3002380F8DC30BD
:1019A00080F8DD10D8B2B0BD7047704770477047FF
:1019B0007047704770477047704790F8DC300222DC
:1019C000012B21D080F8DD2001224B1C80F8DC2087
:1019D0000268D2F8CCC309D04CF00203C2F8CC3371
:1019E000D2F8CC3323F00C03194301E02CF00201B0
:1019F000C2F8CC13D2F8CC1341F00101C2F8CC13D9
:101A00000121002280F8DD10D0B270477047704786
:101A100070477047704770477047F8B50D460446E9
:101A200006294BD0FF2D40F0AF802068D0F88813F6
:101A3000D0F8902302EA010515F0010F05D001212D
:101A4000C0F88C132046FFF7E2FFA80706D52068F0
:101A50000221C0F88C132046FFF7DAFF680706D58D
:101A600020680421C0F88C132046FFF7D2FF280716
:101A700006D520680821C0F88C132046FFF7CAFF5E
:101A8000E80606D520681021C0F88C132046FFF721
:101A9000C2FF680606D520684021C0F88C13204696
:101AA000FFF7BAFFA80640F11A8120682021C0F88C
:101AB0008C132046BDE8F84000F0B4B92068D0F897
:101AC0008813D0F890234568C66802EA010717F426
:101AD000803F0CD04FF48031C0F88C13002084F884
:101AE000DC00012084F8DD002046FFF765FFB80325
:101AF00007D520684FF40031C0F88C132046FFF75B
:101B000053FF354015F0010F06D020680121816098
:101B100020460621FFF74BFFA80706D520680221C3
:101B2000816020460621FFF743FF680706D520683D
:101B30000421816020460621FFF73BFF280706D5D8
:101B400020680821816020460621FFF733FFE80660
:101B500006D52068102181602046062100F060F93A
:101B6000A80605D5206820218160204600F059F99B
:101B7000680658BFF8BD20684021816020460621D4
:101B8000BDE8F84000F04BB9206800EBC510D0F874
:101B90008410D0F88C2002EA010616F0010F06D05E
:101BA0000121C0F8881020462946FFF700FFB00742
:101BB00009D52068022100EBC510C0F88810204626
:101BC0002946FFF7F5FE700709D52068042100EBD0
:101BD000C510C0F8881020462946FFF7EAFE3007F6
:101BE00009D52068082100EBC510C0F888102046F0
:101BF0002946FFF7DFFEF00609D52068102100EB2B
:101C0000C510C0F888102046294600F009F9700672
:101C100009D52068402100EBC510C0F88810204687
:101C2000294600F0FCF8300609D52068802100EB39
:101C3000C510C0F8881020462946FFF7B6FEF0050B
:101C40000AD520684FF4807100EBC510C0F88810E9
:101C500020462946FFF7AAFEB0050AD520684FF4B2
:101C6000007100EBC510C0F888102046294600F02E
:101C7000B0F870050AD520684FF4806100EBC510FC
:101C8000C0F888102046294600F0A2F830050AD591
:101C900020684FF4006100EBC510C0F888102046A2
:101CA000294600F098F8F0040AD520684FF48051D6
:101CB00000EBC510C0F888102046294600F08AF8CD
:101CC000B0040AD520684FF4005100EBC510C0F8ED
:101CD000881020462946FFF76EFE700400D4F8BD38
:101CE00020684FF4804100EBC510C0F888102046F2
:101CF0002946BDE8F840FFF789BE00007CB50446E0
:101D0000002844D002201C2184F8DD0004F1E0000A
:101D1000FEF7B6FA207AC00719D020682A4988420F
:101D200009D12A490A6842F080620A60096801F014
:101D30008061019101990168D4E9042321F4704183
:101D400002F44042114303F4405211430160204623
:101D500000F020F8207A800706D520680168E26844
:101D6000120A62F30921016000250026012084F88F
:101D7000DC5084F8DD0006E0A0191421056318305A
:101D8000FEF77EFA1C36C42EF6D1002000E00120BA
:101D900002B070BD00680C49884218BF7047E0B5BA
:101DA0000A480022016841F080610160002100685A
:101DB00000F0806001900198432000F059FC43201E
:101DC000BDE88C4000F046BC006801406010024055
:101DD0007047704770477047F8B50D460446FFF7E7
:101DE00083FC06466F1C2068D0F8880310F4803FFF
:101DF0000CD1002FF7D0FFF777FC15B1801BA8425C
:101E0000F1D9072084F8DD00032005E0002001213E
:101E100084F8DC0084F8DD10C0B201B0F0BD70477A
:101E200070477047704790F8DDC00223BCF1020F85
:101E300032D080B580F8DD300629036810D11968EA
:101E400021F01F0CD2E9021E21F0180141EA0C0119
:101E500041EA0E011960116859615168996115E0F4
:101E600003EBC111D1F8803023F01F0CD2E9023E00
:101E700023F0180343EA0C0343EA0E03C1F8803051
:101E80001368C1F894305268C1F8982001210023EA
:101E900080F8DD10BDE88040D8B2704780B590F87A
:101EA000DDC0BCF1020F02D14FF0020C8DE090F8C2
:101EB000DCE04FF0020CBEF1010F00F0868080F8EC
:101EC000DDC04FF0010C062980F8DCC00CD1511E9A
:101ED00007291BD8DFE801F004211A251A1A1A294C
:101EE00001681A68CA6162E0A2F1010CBCF1070F37
:101EF0000CD8DFE80CF0041E0B330B0B0B3A026816
:101F000002EBC1111A68C1F89C2050E0002180F852
:101F1000DC10072180F8DD1049E001681A684A6288
:101F200045E001681A688A6241E001681A68CA627D
:101F30003DE0026802EBC11C1968CCF8A4106146B0
:101F4000D3F804E051F8802F22F44052BEF1000F84
:101F50000A602CD00A6842EA0E021AE0026802EB1C
:101F6000C1111A68C1F8A82021E0026802EBC11C67
:101F70001968CCF8AC106146D3F804E051F8802F12
:101F800022F44042BEF1000F0A6010D00A6842EA13
:101F90008E02BEF5405F0A6006D0BEF5005F04BF4A
:101FA0009968CCF89C1002E09968CCF8A81090F8D9
:101FB000DD10072902D14FF0010C06E04FF0000CB4
:101FC000012180F8DCC080F8DD105FFA8CF080BD64
:101FD00090F8DC300222012B0BD080F8DD20026863
:101FE0001368194311600022012180F8DC2080F879
:101FF000DD10D0B2704700002DE9F04F85B00446E7
:1020000090F8DD0015460E46022801D102201AE1A3
:1020100094F8DC100220012900F0158184F8DD001D
:102020000120062E84F8DC00D4F800E038D1DEF878
:102030000020DEF8A0C36B6922F0E00223F0C007A5
:10204000202B42EA070206D0AB69042B51D0032BA8
:1020500052D0022B53D142F02002874BD5E90771B1
:10206000D5E909081A4003F5006321F06E4120F01C
:1020700068403B401A431143084328F0604108433D
:10208000E96A40EA8100696B20F000500843296B3F
:10209000CEF800002CF480300843CEF8A003AAE06C
:1020A0000EEBC61AD44651465CF8800F20F0704003
:1020B000CCF80000DCF8000051F8E82F0491019200
:1020C000514620F0200351F8E49F0391DEF8A0036D
:1020D0006F693B43202F029006D0AF69042F11D0C7
:1020E000032F11D0022F13D123F4D07343F0200318
:1020F00010E042F08002B0E742F04002ADE722F08B
:10210000E002AAE7022700E0012767F3C81301E015
:1021100023F4D0734E4F07F5FA3007F5FE3218401E
:10212000D5E90731D5E909B81A4039406B6B10433E
:10213000084307F1C061B3F1005F01EA0B0140EA17
:10214000010007F1606101EA080140EA0100E96A63
:1021500040EA01003F4900EA010208BF40F40032B2
:1021600001F50030D5F838803B49AB6D104008EAE6
:10217000010201F580211940AB6C11432A6D114316
:1021800041EA000B686C29F4807140EA010733488A
:1021900001990840E96B01F03F010843296C40EACE
:1021A000010943F48050B0F5F05F02D1B8F1400F5F
:1021B00003D127F4F05040EA0307E86C27F480418C
:1021C0006B6D052E41EA000709D825A00299721C03
:1021D00050F826000840296B9140014300E0029925
:1021E000CCF800B00498C0F8009003980760CAF8D3
:1021F000D430CEF8A013C6EBC600296804EB8000EB
:10220000016269684162A9688162E968C1622969FD
:1022100001632046314601F007FD062E0DD0E86A25
:1022200058B9206800EBC610D0F88010EA6D21F490
:10223000007141EA4221C0F880100020012184F899
:10224000DC0084F8DD10C0B205B0BDE8F08F00BF3F
:10225000FFFFFD01BFFF00FEFFFF02FEC0FFFF7F8B
:10226000FFFFFDFFFFFFFBFFFFFFF7FFFFFFEFFF9C
:10227000FFFFDFFFFFFFBFFFFFF3FF3190F84120BB
:10228000202A03D190F84020012A01D1022118E030
:10229000242280F841200268136823F001031360B0
:1022A000136823F480531360136819431160116895
:1022B00041F0010111600021202280F8401080F8D7
:1022C0004120C8B2704790F84120202A03D190F8ED
:1022D0004020012A01D1022117E0242280F8412068
:1022E0000268136823F001031360136823F470631A
:1022F00043EA01211160116841F0010111600021E0
:10230000202280F8401080F84120C8B270470000B9
:1023100010B5044618B394F8410028B9002084F899
:102320004000204600F004F9242084F84100206891
:10233000016821F001010160616821F070610161B3
:10234000816821F400418160D4E90213012B08D196
:1023500041F400418160014651F8042F0CE0012056
:1023600010BD41F40441022B8160014651F8042F55
:1023700002D142F4006201E022F400620A60104AD5
:1023800004F11003416811434160C16821F4004128
:10239000C1600ECB114341EA0321C160D4E90712A9
:1023A00011430160016841F001010160002020211A
:1023B000606484F84110206384F8420010BD00BFBF
:1023C000008000022DE9F84F044690F841001D46B8
:1023D00017468846202803D194F84000012804D1EC
:1023E0000226F0B201B0BDE8F08F012684F840600B
:1023F000FFF77AF98346009020464FF4004101220E
:10240000192301F0D9FC0028EBD1212084F84100E8
:10241000102084F842000020606465856762606374
:10242000608DB0F5807F04D3FF204FF0807320854E
:1024300005E0608D002820855FD04FF00073216893
:1024400017F8012B8A62411E6762C2B220462185BD
:10245000618D0139618534490091414601F092FC5A
:102460000A9F4FF6FF754FF000094FF0FF0A39E061
:10247000204639465A4601F007FDE0BB616A2068F4
:1024800011F8012B8262608D013860856162208DB8
:10249000411E21852942608D24D118B32046802118
:1024A00000223B46CDF800B001F086FC18BB608DE1
:1024B000B0F5807F0BD320464146FF224FF080735A
:1024C000A4F828A0CDF8009001F05CFC0AE0608D33
:1024D00041464FF000732085C2B22046CDF80090EF
:1024E00001F050FC608D0028C2D1204639465A4682
:1024F00001F0A0FC48B1012673E70B4841460022D9
:102500004FF0007300902046A8E720682021074B79
:102510000026C16142681A40426084F8411084F884
:10252000406084F842605CE70020008000E800FE24
:10253000B0B59CB0044617A81421FDF7A1FE02A86F
:102540005421FDF79DFE2068184988422BD10024B4
:1025500080200A94029002A800F01CF908B1FEF74E
:10256000F7F9134D17A9286840F001002860286882
:1025700000F0010001900198122018904FF4407073
:102580001790032019941A9004201B904FF090404C
:10259000FEF7CEFFE86840F48000E860E86800F4E9
:1025A0008000019001981CB0B0BD00BF00580040F1
:1025B0004C1002401948416882681144816070479C
:1025C00080B5032000F076F80F2000F007F808B17E
:1025D000012080BD00F024F8002080BD70B50F4EB2
:1025E00004467068B0B14FF47A71B1FBF0F0634902
:1025F0000968B1FBF0F000F0B7FD01250F2C0AD8F7
:1026000048B94FF0FF3021460022002500F030F895
:10261000346000E00125284670BD00BF0C0000209A
:1026200082B00B48816841F001018160816801F04E
:10263000010101910199016841F080510160006838
:1026400000F080500090009802B000F09BB800BFEE
:1026500058100240002808DB00F01F010122400949
:1026600002FA01F1014A42F82010704700E100E04F
:1026700010B5164B1B68C3F3022E0EF1040CAEF11D
:1026800003048EF00703BCF1070F4FF0010C38BFB5
:102690000024042B28BF04230CFA03F3013B194048
:1026A0000CFA04F3013BA1401A401143BDE810406D
:1026B00002F048BB05494FF6FF030A681A4060F371
:1026C0000A22034810430860704700BF0CED00E089
:1026D0000000FA0520B3D649B0F5007F0A6845D15D
:1026E000D1F8800040F48070C1F8800002F4C0602E
:1026F000B0F5806F3ED10868012262F34A20322291
:1027000008601E48006850431D4AB0FBF2F0C04309
:102710004A6918B1013012F48062F9D1486920E0A9
:10272000C3480168D0F8802001F4C06122F48072AF
:10273000B1F5806FC0F880201CD10168012262F3DE
:102740004A21322201600D49096851430C4AB1FB0C
:10275000F2F1C943426919B1013112F48062F9D131
:10276000406910F4806F05D0032004E0022060F37C
:102770004A220A600020C0B2704700BF1800002043
:1027800040420F000248016841F4804101607047F7
:10279000087000402DE9FC4104468078A34E0007F4
:1027A00001D4002060E0F06C10F0805F0BD1F06C81
:1027B0004FF0010840F08050F064F06C00F0805061
:1027C0000190019801E04FF00008994F386840F4FB
:1027D00080703860FEF788FF0546386810F4807F07
:1027E00006D1FEF781FF401B0228F6D9032034E012
:1027F000D6F8840010F4407026D0216D884211D0A4
:10280000D6F88400D6F8841041F4803120F440706A
:10281000C6F88410D6F8841021F48031C6F88410EC
:10282000C6F88400C0070FD0FEF75EFF054641F2F0
:102830008837D6F8840010F0020F05D1FEF754FF58
:10284000401BB842F5D9D1E7D6F88400216D20F4B9
:1028500040700843C6F884000020B8F1000F1EBF86
:10286000F16C21F08051F164216811F0010F05D065
:10287000F26F636822F003021A43F2678A0705D5F4
:10288000F26FA36822F00C021A43F2674A0705D5DB
:10289000F26FE36822F030021A43F2670A0705D5A7
:1028A000F26F236922F0C0021A43F267CA0605D507
:1028B000F26F636922F440721A43F2678A0605D503
:1028C000F26FA36922F440621A43F2674A0605D503
:1028D000F26FE36922F440521A43F2670A0605D503
:1028E000F26F236A22F440421A43F267CA0505D503
:1028F000F26F636A22F440321A43F2678A0307D503
:10290000D6F89020A36A22F003021A43C6F890205A
:102910008A0505D5F26FE36A22F440221A43F26772
:102920004A050DD5F26F236B22F44012B3F5801FD8
:1029300042EA0302F26702BF326842F48012326058
:102940000A050DD5F26F636B22F44002B3F5800FD8
:1029500042EA0302F26702BF326842F48012326038
:10296000CA040DD5F26FA36B22F04072B3F1807FE1
:1029700042EA0302F26702BF326842F48012326018
:102980008A040DD5F26FE36B22F04062B3F1006F61
:1029900042EA0302F26702BF326842F480123260F8
:1029A0004A040DD5F26F236C22F04062B3F1006F40
:1029B00042EA0302F26702BF326842F480123260D8
:1029C0000A040DD5F26F636C22F04052B3F1805FC0
:1029D00042EA0302F26702BF326842F48032326098
:1029E000CA030DD5F26FA36C22F04042B3F1804FC1
:1029F00042EA0302F26702BF326842F48032326078
:102A000049030FD5D6F89010E26C21F44011B2F5CD
:102A1000001F41EA0201C6F8901002BF316841F47C
:102A200080113160C0B202B0BDE8F0810C100240EC
:102A3000007000402DE9F0478A468146002854D0B6
:102A4000754C4FF48050215801F00F0151450AD2C6
:102A5000215821F00F0141EA0A012150205800F0CD
:102A60000F00504541D1D9F8000010F0010F02D1FC
:102A70004FF000086BE0D9F80410032930D1216829
:102A800011F0007F31D0E168E268E368E768022670
:102A9000C7F3416701F0030106EB47072646894C5F
:102AA000032904BF43F20064C0F26E14C2F30311A1
:102AB000C3F306220131B4FBF1F15143574AB1FB94
:102AC000F7F1914224D9B168344611F0F00F17D0D4
:102AD000800702D5D9F8080090B14FF000081AE03D
:102AE0002068022905D1800305D40120C0B2BDE8C9
:102AF000F0874005F9D500F0B3F848498842ECD991
:102B0000A06808214FF0800861F30710A06002E080
:102B10004FF000083446A068D9F8041020F00300F4
:102B20000843A060FEF7E0FD064641F28837A06842
:102B3000D9F8041000F00C00B0EB810F05D0FEF7BF
:102B4000D3FD801BB842F2D93CE0D9F800008107E0
:102B500006D4B8F1800F17D1A16821F0F00112E07E
:102B6000410742BFA16841F4E061A160010704D5BB
:102B7000A168072262F30D21A160A168D9F808209D
:102B800021F0F0011143A1604FF48057E15901F0A9
:102B90000F0151451BD9E059254620F00F0040EAAE
:102BA0000A00E051FEF7A0FD064641F288342846AF
:102BB000E85900F00F00504506D0FEF795FD801B48
:102BC000A042F4D9032091E7D9F800002C46410730
:102BD00006D5A168D9F80C2021F4E0611143A16069
:102BE000000707D5A068D9F8101020F4605040EA1B
:102BF000C100A06000F034F8A168094AC1F30311D4
:102C0000515C01F01F01C840134908600548006885
:102C1000BDE8F047FFF7E2BC0010024000B4C40476
:102C20003E5200080C0000200B4825490B4A006862
:102C30000968C1F30221515C01F01F01C8407047CF
:102C400005481F49054A00680968C1F3C221515C63
:102C500001F01F01C8407047180000204E520008C4
:102C60001749184A086800F00C000428104608BFED
:102C70007047086800F00C031348082B1ED00B683F
:102C800003F00C030C2B1CBF002070474B6803F0B3
:102C90000303032B08BF02464868C0F3031001304A
:102CA000B2FBF0F04A68C2F30622496850430222A0
:102CB000C1F3416102EB4101B0FBF1F0704700BF8D
:102CC000081002400024F40000366E012DE9F8439C
:102CD0000446002800F0D3812078C94EC94FC007B0
:102CE000B1461FD1207880074FD42078000740F1EB
:102CF000A6806169D7F89000002900F08E8040F02E
:102D00000100C7F89000FEF7EFFC0546D7F89000E9
:102D100010F0020F40F09380FEF7E6FC401B022803
:102D2000F4D9DEE07968B86801F00C01082953D0C5
:102D3000032281F00C0122EA00000843B0FA80F07F
:102D4000400949D16668B6F5803F0AD0D9F800003D
:102D5000C846B6F5A02F40F0E28040F48020C8F8C5
:102D60000000D9F800004E4640F48030C9F8000059
:102D7000FEF7BAFC0546306810F4003FB2D1FEF70A
:102D8000B3FC401B6428F6D9ABE07868B96800F062
:102D90000C0004282AD001F0030180F00C0081F01F
:102DA00002010843B0FA80F040091FD1E1683068A1
:102DB000002900F0988040F480703060FEF794FCA9
:102DC0000546306810F4806F40F0A180FEF78CFC5F
:102DD000401B0228F5D984E0306810F4003F3FF42E
:102DE00081AF606800287FF47DAF48E1306810F45F
:102DF000806F03D0E068002800F0418138682169C5
:102E000020F0FE4040EA01603860D2480068FFF7D9
:102E1000E5FB002840F0338167E720F00100C7F8A8
:102E20009000FEF761FC0546D7F8900010F0020F05
:102E300005D0FEF759FC401B0228F5D951E0207857
:102E4000400740F1AF80786D10F0805F0BD1786D56
:102E50004FF0010840F080507865786D00F08050A8
:102E60000090009801E04FF00008BB4E484659F82A
:102E7000060010F4807F14D159F8060040F48070E9
:102E800049F80600FEF730FC0546484659F80600AA
:102E900010F4807F05D1FEF727FC401B0228F4D9EF
:102EA0001FE0A668012E07D0D7F88C00052E55D15B
:102EB00040F00400C7F88C00D7F88C0040F0010007
:102EC000C7F88C00FEF710FC054641F28836D7F8AB
:102ED0008C0010F0020F5ED1FEF706FC401BB042E2
:102EE000F5D90320CCE020F480703060FEF7FCFBC5
:102EF00005464846D9F8000010F4806F3FF4F5AE5F
:102F0000FEF7F2FB411B03200229F2D9B8E0386832
:102F1000216920F0FE4040EA01603860E5E620F4D7
:102F20008030C8F80000D8F8000020F48020C8F8ED
:102F30000000FEF7D9FB002E054646467FF41BAF86
:102F4000D9F800004E4610F4003F3FF4CBAEFEF738
:102F5000CBFB411B03206429F2D991E020F0010052
:102F6000C7F88C00D7F88C0020F00400C7F88C005C
:102F7000FEF7BAFB0546002EA7D141F28836D7F8F6
:102F80008C0010F0020F06D0FEF7AEFB411B0320B1
:102F9000B142F4D974E0B8F1000F1EBF786D20F093
:102FA00080507865207880062ED5A169D7F89400E6
:102FB00091B140F00100C7F89400FEF795FB05467B
:102FC000D7F8940010F0020F1ED1FEF78DFB411BC5
:102FD00003200229F4D953E020F00100C7F894003F
:102FE000FEF782FB0546D7F8940010F0020F0BD0D5
:102FF000FEF77AFB411B03200229F4D940E000BF11
:103000000010024004100240E669002E00F09F808C
:10301000786800F00C000C2836D1012E2FD0B8684B
:10302000216A00F003028A4229D1616A6FF00F021F
:1030300002EB011100F0F0028A4220D1A16A00F4F3
:10304000FE42B2EB012F1AD1E16A00F07842B2EBF6
:10305000C16F14D1216B434A02EA015100F4C0024E
:10306000A1F500118A420AD1616B4FF07E4200F057
:10307000C06001F0FE0102EB0161884267D00120CF
:10308000C0B201B0BDE8F083D9F8000020F0807034
:10309000C9F80000FEF728FB0546022E0CD1484671
:1030A000D9F8000010F0007F13D0FEF71DFB411B84
:1030B00003200229F3D9E3E74846D9F8000010F0CD
:1030C000007F40D0FEF710FB411B03200229F3D9FB
:1030D000D6E704F12006B8686FF00F054ECE05EB79
:1030E00002121F4D28400843216B10431D4A40EA3D
:1030F000032002EA01514FF07E42A1F5001108437E
:10310000616B40EAC66001F0FE0102EB0161084319
:10311000B860D9F8000040F08070C9F80000B868C5
:1031200040F08070B860FEF7DFFA04464846D9F8F0
:10313000000010F0007F0AD1FEF7D6FA011B032031
:103140000229F3D99CE7B86804490840B860002018
:1031500096E700BF0C0000200060FEFFFCFFEEFEC3
:103160000C809F010000E0FF411E0020B0EB116FBA
:103170001CBF01207047044AF023516003490B70C3
:10318000072190601160704710E000E023ED00E03F
:1031900070477047704770477047704790F83C30F1
:1031A0000222012B40D070B580F83D200122654DF0
:1031B00080F83C20026854689368AA4205D0634EA8
:1031C000B24202D0604EB24203D14E6824F4700481
:1031D0003443164EB2F1804F06EA04060C6846EA04
:1031E0000406566013D0544CA24210D0534CA24255
:1031F0000DD0534CA2420AD0AA4208D0524CA2424F
:1032000005D0524CA24202D0514CA24204D189684E
:1032100023F08003194391600022012180F83C20B3
:1032200080F83D10BDE87040D0B270478FFFFFFDC1
:10323000704710B5044650B394F83D0028B90020FB
:1032400084F83C00204600F025F80220211D84F877
:103250003D00206801F036FA012084F8480084F827
:103260003E0084F83F0084F8400084F8410084F870
:10327000420084F8430084F8440084F8450084F850
:10328000460084F8470084F83D00002010BD01206E
:1032900010BD00000068B0F1804F18BF7047E0B566
:1032A00009480022016841F0010101600021006825
:1032B00000F00100019001981C20FFF7D9F91C20B3
:1032C000BDE88C40FFF7C6B95810024090F83D1099
:1032D00001291CBF01207047022180F83D100168C0
:1032E000C868B1F1804F40F00100C86014D01248A6
:1032F000814211D0114881420ED0114881420BD039
:103300001048814208D01048814205D00F488142C0
:1033100002D00F48814209D188680E4A024000203D
:10332000062A08D0B2F5803F08BF7047086840F011
:1033300001000860002070470004004000080040C1
:10334000000C0040002C01400034014000500140BE
:10335000004001400700010010B590F83C200446F1
:103360000220012A54D084F83D000120444B84F807
:103370003C00206882681A4082600A68D2B3102A32
:1033800038D0202A36D0302A34D0402A42D0502A91
:1033900069D0602A4AD03B4B9A422BD0B2F5805F6D
:1033A0002FD0B2F5005F4DD0B2F5801F22D0B2F120
:1033B000101F1FD0344B9A421CD0344B9A4219D064
:1033C000334B9A4216D0334B9A4213D0324B9A4227
:1033D00010D0702A45D1D1E90123C9681A4342EAC5
:1033E0000121826822F47F4211438160816841F0AB
:1033F000770105E08168294B1940114341F007012D
:1034000081600020002184F83C10012184F83D10E7
:10341000C0B210BD4B68CA68194601F0C7F92068F0
:103420001E4A8168114041F04701E9E74B68CA68CC
:10343000194601F0CCF92068184A8168114041F022
:103440006701DDE7D1E90123C9681A4342EA012196
:10345000826822F47F4211438160816841F4804197
:10346000CEE70120CEE74B68CA68194601F09EF905
:1034700020680A4A8168114041F05701C0E700BF47
:103480008800CEFF700010002000100030001000F7
:1034900040001000500010006000100088FFCFFFB7
:1034A00070470000F8B504460068C768066906EA78
:1034B000070515F0020F14D06FF002010161012120
:1034C0002177806910F0030F03D02046FFF7E8FF53
:1034D00005E0204600F0AEF8204600F0ACF80020F1
:1034E0002077680715D520686FF00401016102217B
:1034F0002177806910F4407F03D02046FFF7D0FF8A
:1035000005E0204600F096F8204600F094F80020F0
:103510002077280715D520686FF008010161042184
:103520002177C06910F0030F03D02046FFF7B8FFE2
:1035300005E0204600F07EF8204600F07CF80020F0
:103540002077E80615D520686FF010010161082189
:103550002177C06910F4407F03D02046FFF7A0FF19
:1035600005E0204600F066F8204600F064F80020F0
:103570002077E80706D020686FF00101016120463E
:1035800000F05AF817F0800718BF16F4025005D063
:103590002068224901612046FFF7FBFD47B116F480
:1035A000807005D020681E4901612046FFF7F0FDBC
:1035B000680606D520686FF040010161204600F0E2
:1035C0004FF8A80606D520686FF02001016120465B
:1035D000FFF7E0FDE80205D52068124901612046A9
:1035E000FFF7DAFDA80205D520680F4901612046E2
:1035F000FFF7D1FD680205D520680C49016120461E
:10360000FFF7CBFD280258BFF8BD206808490161CB
:103610002046BDE8F840FFF70BBE00BF7FDFFFFF8D
:10362000FFFEFFFFFFFFEFFFFFFFDFFFFFFFBFFF1B
:10363000FFFF7FFF704770470068B0F1804F07D1F0
:1036400080B505484FF40051FEF740F8BDE88040D2
:103650000248012101617047000400482000002059
:10366000704790F88410012901D1022112E0242131
:10367000C0F8881002681368116821F0010123F076
:1036800000531160002141661360202280F88410ED
:10369000C0F88820C8B2704770477047B0B504467C
:1036A00090F88400012801D102201BE02420C4F8F6
:1036B0008800012084F8840020680568026822F0F0
:1036C00001020260826822F060621143816020463C
:1036D00001F090F8206820210560002084F8840023
:1036E000C4F88810C0B2B0BDB0B5044690F88400EC
:1036F000012801D102201BE02420C4F88800012009
:1037000084F8840020680568026822F001020260E3
:10371000826822F0604211438160204601F06AF81D
:10372000206820210560002084F88400C4F88810F7
:10373000C0B2B0BD704770477047000070B5044616
:10374000006840F60F01C2690346D0F800E053F864
:1037500008CF0A4249D0BE490EEA0105BD4901EA37
:103760000C010D434BD0D50718BF1EF4807507D050
:1037700001250562D4F8905045F00105C4F8905039
:103780000CF00105960708D53DB102260662D4F873
:10379000906046F00406C4F89060560708D53DB125
:1037A00004250562D4F8905045F00205C4F8905005
:1037B00015070BD50EF02005294307D0082101621B
:1037C000D4F8901041F00801C4F89010110569D5A3
:1037D0001EF0806166D04FF400612546016255F805
:1037E000900F40F0200028605EE0910607D50EF0B3
:1037F00020010CF08053194301D0616FECE00EEA18
:103800000201E36E11F0100F3DD0012B3BD11021CE
:103810000162816811F0400F40F08580B4F85E10BD
:10382000B4F85C20B4F85E30002B00F0E580511A4B
:103830000A0401D1E0E0206850E8000F226820F47B
:10384000907042E80003002BF5D18448226852E8CA
:10385000022F2368024043E80226002EF6D12020E2
:10386000C4F88C0000206067E066206850E8000F14
:10387000226820F0100042E80003002BF5D102205E
:1038800089B220679AE0D30240F19D801CF4800346
:1038900000F099804FF4801101622046BDE870402D
:1038A000FFF749BF04F190052868002800F0A480C4
:1038B00090060CD50EF020000CF08051084306D085
:1038C000616F21B120468847206800F1080328680D
:1038D000196800F0280001F04001084300F08680DC
:1038E000204601F081F82068816811F0400F01D175
:1038F00077E0206850E8020F216820F0400041E89E
:103900000202002AF5D1D4F88000002869D052497B
:103910008163FDF7C4FC00286ED0D4F88000816B71
:10392000BDE870400847D4F880100A6853689DB21B
:10393000002D61D0B4F85C108D425DD2A4F85E30E9
:10394000126812F0200F01D032E0206850E8000F1A
:10395000216820F4807041E80002002AF5D1206837
:1039600050E8020F216820F0010041E80202002A1D
:10397000F5D1206850E8020F216820F0400041E8AE
:103980000202002AF5D12020C4F88C000020E06655
:10399000206850E8000F216820F0100041E8000284
:1039A000002AF5D1D4F88000FDF746FCB4F85C108D
:1039B00002202067B4F85E00081A81B22046BDE8F4
:1039C0007040FFF769BE130617D50EF080030CF4A4
:1039D0000006334311D0A16F71B12046BDE870409D
:1039E00008472046BDE87040FFF7A6BE2046FFF717
:1039F000A3FE0020C4F8900070BD49060AD410024E
:103A00001BD51EF0804018D02046BDE87040FFF75F
:103A100091BE206850E8000F216820F0400041E886
:103A20000002002AF5D10020A0672020C4F88800F9
:103A30002046BDE8704000F0EFB8D001DCD5BEF103
:103A4000FF3FD9DC2046BDE87040FFF726BE00BF2F
:103A50002001000401000010D9490008FEFFFFEF1B
:103A600010B50446D0B1D4F8880028B9002084F8F5
:103A70008400204600F026F82420C4F8880020683E
:103A8000016821F001010160A06A10B1204600F038
:103A9000DBFE204600F0D6FF012801D1012010BD39
:103AA0002068416821F490414160816821F02A0139
:103AB0008160016841F0010101602046BDE81040CD
:103AC00000F02CBF10B59CB0044617A81421FCF7D9
:103AD000D7FB02A85421FCF7D3FB20681A4988427F
:103AE00030D1002401200394029002A8FEF752FE78
:103AF00008B1FCF72DFF1548416941F4804141614F
:103B0000416901F4804101910199016841F002018C
:103B1000016017A9006800F00200019001980220DE
:103B20001890C02017900720CDE919441B90084831
:103B3000FDF7FEFC252000210022FEF799FD25203F
:103B4000FEF788FD1CB010BD003801404C1002404B
:103B5000000400482DE9F8430446D0F888001D46CB
:103B60001746884620281ED1B8F1000F4FF00100FB
:103B700018BF002F18D04FF000092120C4F89090F2
:103B8000C4F88800FDF7B0FDA4F85470A4F856708E
:103B90000646A068B0F5805F0AD12769002F0CBFE8
:103BA000C14647461FE00220C0B201B0BDE8F08325
:103BB000474618E02046802100223346009501F058
:103BC00069F820BB1FB117F8011B206805E039F820
:103BD000021B206800276FF35F218162B4F8560052
:103BE0000138A4F85600B4F856000028E2D1204667
:103BF000402100223346009501F04CF82021002896
:103C0000C4F8881018BF032001B0BDE8F08320205D
:103C1000C4F888000320C7E7704700000148062168
:103C2000FDF7FBBEAC050020062988BF7047006881
:103C300004A252F82110D0F884231143C0F8841351
:103C4000704700BF020000000400000008000000F0
:103C500010000000200000004000000001000000F3
:103C6000FEE70068816911F0020F1CBF002181622C
:103C7000816911F0010F02BF816941F00101816189
:103C8000704700002DE9F041044600680D461646D5
:103C9000816911F0100F02D1002500213DE01021B3
:103CA0004FF000086F1CC16100212AE03FB3FDF70F
:103CB0001BFD15B1801BA84221D92068426894F8E9
:103CC00042308169202B0CD012F4804209D111F4CA
:103CD000004106D0416841F480414160FDF704FD98
:103CE00006462068806910F0200F08D1FDF7FCFC23
:103CF000801B1A28F5D348F02008012100E000219C
:103D000020688269090608BF12F02002CED009B9E6
:103D10002021C16148F004050121826912F4807FED
:103D200005D04FF4807145F00105C16101215305B3
:103D300005D54FF4806145F00805C1610121920568
:103D400003D439B90020BDE8F0814FF4007145F08B
:103D50000205C1612046FFF784FF2068084A4168D8
:103D600011404160606C28436064202084F8410069
:103D7000002084F8400084F842000120BDE8F08172
:103D800000E800FE10B500686FF39F21DDF808E041
:103D9000084C1943D0F804C041EA024141EA0E013F
:103DA0002CEA5E5C21F0004104EA0C0421434160EE
:103DB00010BD00BF009C00FC2DE9F843DDF8208019
:103DC0001D4616460F46044603F101092068806926
:103DD0003840C01BB0FA80F04009B04226D12046DE
:103DE00029464246FFF74EFFF0B9B9F1000FEDD07A
:103DF000FDF77AFC1DB1A0EB0800A842E6D92068C7
:103E000080693840C01BB0FA80F04009B042DDD173
:103E1000606C40F020006064202084F841000020A5
:103E200084F8400084F84200012000E0002001B046
:103E3000BDE8F08370B515460E46044620688069DB
:103E400010F0200F1CBF002070BD204631462A46CE
:103E5000FFF718FFB0B9FDF747FC16B1401BB042A1
:103E6000ECD92068806910F0200FE7D1606C40F039
:103E700020006064202084F84100002084F8400085
:103E800084F84200012070BDF8B515460E46044680
:103E90004F1C2068806910F0020F20D12046314667
:103EA0002A46FFF7EFFEC0B9002FF2D0FDF71CFC49
:103EB00016B1401BB042ECD92068806910F0020FA7
:103EC000E7D1606C40F020006064202084F841005D
:103ED000002084F8400084F84200012000E0002027
:103EE00001B0F0BDC1F3045CC1F34061072300EBF6
:103EF000810003FA0CF302FA0CF241699943114371
:103F00004161704770B58CB0002401A820212026A3
:103F10000B94CDE90944FCF7B3F927484FF440313D
:103F20004FF0A04201230425C0E900210221C0E98D
:103F30000244C0E90443856184834FF480620162D6
:103F40004FF4D46180F82440C0E90B1280F8383077
:103F5000C46380F84030C0E91156C0E91343FCF750
:103F600077FF08B1FCF7F4FC134809A90994FCF7A2
:103F700039FD08B1FCF7ECFC06207F2102900020FF
:103F8000039004910421CDE905100C4801A901908A
:103F90000948FCF7ADFD08B1FCF7DAFC0C2001A9DB
:103FA0000290074801900448FCF7A2FD08B1FCF715
:103FB000CFFC0CB070BD00BFE00400200200300454
:103FC00004006008E0B50E480022016841F00401D9
:103FD0000160016801F0040101910199016841F05B
:103FE000010101600021006800F0010000900098CC
:103FF0000B20FEF73DFB0B20BDE88C40FEF72ABBF3
:104000004810024070B586B000251D481D4C0022A6
:104010004FF400560595016841F004010160016804
:1040200001F0040100910099016841F02001016054
:10403000016801F0200100910099016841F001013F
:104040000160016801F0010100910099016841F0EF
:10405000020101604FF40051006800F0020000907E
:1040600000982046FDF73AFB012001A9CDE9016047
:104070002046CDE90355FDF75BFA06B070BD00BFE1
:104080004C10024000040048B0B5A2B004AC0025BA
:1040900060212046CDE92055CDE91E55CDE91C55BE
:1040A000FCF7EEF834483549C0E900158560039502
:1040B000CDE90155FDF722FE08B1FCF749FC2E4879
:1040C0000C21FDF77AFC08B1FCF742FC2A480A21D2
:1040D000FDF782FE08B1FCF73BFC102020AA01216D
:1040E0002190002020902448FDF780FB08B1FCF7C8
:1040F0002FFC2148012100220025FDF7FBFA08B121
:10410000FCF726FC4DF280401D951CAA06211C9050
:1041100008201E951F901848FDF785FE08B1FCF792
:1041200017FC002501201421CDE90655CDE90455E1
:10413000089004F11400FCF7A3F84FF000600F950D
:10414000062122460E904FF00050109511900A481B
:104150001B95FDF751FF08B1FCF7FAFB46F640202E
:1041600001AB0621012201900348FDF797FE08B13B
:10417000FCF7EEFB22B0B0BDAC05002000680140AA
:1041800010B5144C1448154900220123C4E900104D
:1041900004F110001421C4E90223FCF771F8204651
:1041A000FEF7B6F808B1FCF7D3FB0A480021FEF78A
:1041B00065F808B1FCF7CCFBF7480021FEF783F85F
:1041C00008B1FCF7C5FB0648016841F40011016025
:1041D00010BD00BFA80600207221800000580040DA
:1041E0000400014080B588B0174800214FF080429C
:1041F000AA234FF47A7CCDE90611CDE90411C0E978
:104200000023C0E9021C016181610391CDE9011124
:10421000FFF70FF808B1FCF79BFB4FF4805004A99F
:1042200004900948FFF798F808B1FCF791FB0020CB
:1042300001A90390202001900348FEF7AFFF08B1C9
:10424000FCF786FB08B080BDFC06002010B5F54CDD
:1042500016494FF4E13000220C23C4E9001004F1A8
:1042600018001421C4E90222C4E90423FCF708F869
:104270002046FFF7F5FB08B1FCF76AFBE94800218F
:10428000FFF732FA08B1FCF763FBE6480021FFF7BD
:1042900005FA08B1FCF75CFBE248FFF7E2F90028F9
:1042A00014BFBDE8104010BDFCF752BB0038014000
:1042B000FEE7FEE7AF4900200022082A08BF70474A
:1042C000002301E0C8540133802BFBD1803101323F
:1042D000F3E700BF2DE9F04347B2002F2BDB3F2966
:1042E00029D817186FF07F06DFF888824FF0010C8D
:1042F000802F03EB010788BF321A402F88BFC1F11E
:10430000400350FA82F951FA83FE11E005F00704E8
:10431000ED0806460CFA04F4E44305E008EBC51387
:104320000136DA5D2240DA55F7B2B945F6D80131E7
:10433000CDB2AE45EAD8BDE8F08300BF10B5224C3F
:10434000AE20A047D520A0478020A047A820A047A6
:104350003F20A047D320A0470020A0474020A047EF
:10436000A120A047C820A047DA20A0471220A047DC
:104370008120A047CF20A047D920A047F120A04707
:10438000DB20A0473020A047A420A047A620A047BC
:104390008D20A0471420A047AF20A047FFF78AFF39
:1043A000BDE8104000F0D4B8B0B5074D40F0B00003
:1043B0000C46A847102040EA1410A84704F00F004C
:1043C0002946BDE8B040084779450008E0B5062B0E
:1043D0000DD0082B18BF8CBD0C4B03EB0212102321
:1043E000A2F500720092082200F012F88CBD064B74
:1043F00002EB420203EB42020823C03A009206227B
:1044000000F006F88CBD00BF56520008905400081A
:104410002DE9F04F85B0834640B2984692460E464D
:1044200000284DDB3F2E4BD8584631465246434676
:10443000FFF750FFA8F1010006F0070EC11700EBCF
:104440005170F1080191CEF10801C01003910021D3
:10445000009031E0019A11FB0AF000275618454AF6
:10446000711C04911DE0072E2AD80E9D00EB0C0153
:1044700002EBC618072E18F803906C5C04FA0EF4D1
:1044800044EA090408F803400AD0049D02EBC5146D
:104490000E9AE55C515C039AD140364A2943E154B7
:1044A00001375FFA87FCD44503D20CEB0B037F2B5B
:1044B000D9D90299009801310291C9B28842C9DA6A
:1044C00005B0BDE8F08F00BF2DE9F84F0A9D1C46EE
:1044D000904689468246C3F1010600274FF00A0B39
:1044E000A74208BFBDE8F88F07FB05F0012132465F
:1044F00003E001EB810101324900002AF9D1B8FB48
:10450000F1F150442B46B1FBFBF2C0B202EB820248
:10451000A1EB420141F030024946FFF757FF013657
:104520000137DDE72DE9F0411C4615468846074670
:10453000002607E006FB047041462346C0B2FFF7A1
:1045400045FF0136F0B22A5C002AF3D1BDE8F081C4
:10455000B0B5084C0025082D08BFB0BDE8B2002159
:10456000FFF722FF2046802100F018F88034013543
:10457000F1E700BFDE000020E0B58DF80700002065
:104580000DF10602782102238DF806000A20009022
:104590001548FDF717FF8CBDA8060020D0B502AF67
:1045A00001F1080202F4FC72ADEB020295464023D1
:1045B00001F1010C1370002305E010F803E0D4189A
:1045C000013384F801E09942F7D182B00A201FFA42
:1045D0008CF3782100900448FDF7F4FE02B0A7F1B7
:1045E0000804A546D0BD00BFA8060020704770474C
:1045F00070B50C4C0C4D0D4E01224FF6FF7320464A
:104600002946B047A91C204608224FF6FF73B04741
:10461000691C204601224FF6FF73B446BDE8704086
:10462000604700BF4807002000000020553B0008FD
:10463000FDF7C0BF70B594B006AC142104F10800BA
:10464000FBF71EFE01A81421FBF71AFE002000252F
:10465000FEF740F801200326062106904FF4803033
:10466000079002200D900E960F915521CDE9101064
:10467000CDE912002046FEF729FB18B1EFF31080B8
:1046800072B6FEE70F2002960421019001A8CDE941
:1046900003550595FEF7CEF918B1EFF3108072B609
:1046A000FEE714B070BD00000248016841F47001DB
:1046B0000160704788ED00E00148FEF7F3BE00BFDF
:1046C000FC0600200268B0F1804F11D02D4B9842BB
:1046D0000ED02D4B98420BD02C4B984208D02C4B2F
:1046E000984205D02B4B984202D02B4B984203D1D5
:1046F0004B6822F070021A43B0F1804F1AD0214B60
:10470000984217D0204B984214D0204B984211D099
:104710001F4B98420ED0204B98420BD01F4B984213
:1047200008D01F4B984205D01A4B984202D01D4B1F
:10473000984203D1CB6822F440721A434B6922F0AD
:1047400080021A4302608A68C2620A688262164A5C
:1047500002444FEAB222092A08D8012303FA02F2DE
:1047600040F2E5231A421CBF09690163012141613E
:10477000016911F0010F1EBF016921F00101016102
:10478000704700BF0004004000080040000C0040DB
:10479000002C014000500140003401400040014025
:1047A000004401400048014000D4FEBFD0F820C0C2
:1047B000036A23F001030362836923F0F00343EAF1
:1047C000021282612CF00A02114301627047D0F894
:1047D00020C0036A23F010030362836923F470434B
:1047E00043EA023282612CF0A00242EA0111016226
:1047F00070470000416ED9B180B50268DFF840C053
:10480000DFF840E09168C1F3426192681CF8013022
:104810001EF80110520FC900B1FBF3F11CF8023071
:104820001EF80220D200B2FBF3F2BDE8804001E0A6
:1048300001220121A0F86810A0F86A20704700BF8B
:10484000A05A0008985A0008816A11F0080F08D091
:1048500002685368D0F838C023F4004343EA0C03DD
:104860005360CA0708D002685368D0F82CC023F4FC
:10487000003343EA0C0353608A0708D50268536883
:10488000D0F830C023F4803343EA0C0353604A0766
:1048900008D502685368D0F834C023F4802343EA73
:1048A0000C035360CA0608D502689368D0F83CC070
:1048B00023F4805343EA0C0393608A0608D5026808
:1048C0009368D0F840C023F4005343EA0C0393608C
:1048D00080B54A0615D5D0F800E0DEF804C0436C78
:1048E0002CF48012B3F5801F42EA0302CEF80420B4
:1048F00007D1DEF80420836C22F4C0021A43CEF8FC
:1049000004200906BDE8804058BF704701684A6826
:10491000C06C22F40022104348607047BCB50446C6
:104920000020C4F89000FCF7DFFE0546206801680F
:1049300011F0080F18D027484FF4001100222B4621
:104940000090204600F0A6F968B1206850E8000FFA
:10495000216820F0800041E80002002AF5D12020E3
:10496000C4F8880025E02068006810F0040F22D009
:1049700018484FF4800100222B460090204600F09A
:1049800089F9C0B1206850E8000F216820F49070C8
:1049900041E80002002AF5D1206850E8020F2168A2
:1049A00020F0010041E80202002AF5D12020C4F8DD
:1049B0008C00032007E02020C4F88800C4F88C0095
:1049C0000020E06620670021C0B284F8841002B0A5
:1049D000B0BD00BFFFFFFF01806A0021A0F85E109C
:1049E000A0F85610FEF7A8BE016851E8001F026843
:1049F00021F4907142E80013002BF5D110B5104C52
:104A0000026852E8022F0368224043E8022100298D
:104A1000F6D1C16E0129BDE8104009D1016851E805
:104A2000001F026821F0100142E80013002BF5D1AD
:104A30002021C0F88C1000214167C166704700BF7B
:104A4000FEFFFFEF70B5044601688068844D864E16
:104A5000D4E90423104340EA0302E0690B680243EF
:104A60002B401A430A604A68E36822F440521A4312
:104A70007C4B4A60A26999421CBF256A2A438D6813
:104A80002E407A4D32438A60A942CE6A626A26F08D
:104A90000F0646EA0206CE621CD0754DA9421BD015
:104AA000744DA9421AD0744DA94219D0994219D017
:104AB000724DA94240F05880714B72491B6801F554
:104AC000806183F0020303F0030343EA830321FAC6
:104AD00003F515E0022506E0042504E0062502E0C2
:104AE000082500E00A25664E3668EE40654D86F0E2
:104AF000020606F0030646EA8606F540994222D0F1
:104B000005F01F03B0F5004F0ED10120082B00F275
:104B1000A0805D49DFE803F00558639D5B9D9D9D86
:104B20006100FEF781F854E00120082B00F291802B
:104B30005549DFE803F0056D788E708E8E8E760015
:104B4000FEF772F869E005F01F030120082B00F260
:104B500080804D49DFE803F0057D137D0A7D7D7D72
:104B60001100FEF761F803E01025C7E7FEF778F8BB
:104B7000014600286AD0626A01E04FF400414348D0
:104B8000656830F8122005EB45060120B1FBF2F311
:104B9000B3425ED32E03B3425BD808460021002304
:104BA000FBF736FB09022A46002341EA10610002A6
:104BB00010EB550041F10001FBF72AFB344AA0F548
:104BC0004071914222D943E0FEF73AF801E0FEF746
:104BD00047F80146D0B3626A01E04FF400412B4828
:104BE00030F81200B1FBF0F061684A0802EB4000B7
:104BF0004FF6EF72B0FBF1F0A0F11001914227D80F
:104C00004FF6F0710140C0F34200084321681CE0F8
:104C1000FEF716F801E0FEF723F80146B0B1626A2C
:104C200001E04FF40041194830F812004FF6EF72DE
:104C3000B1FBF0F0616800EB5100B0FBF1F0A0F1C6
:104C40001001914204D8216880B2C860002000E0C1
:104C500001204FF001120021A266C4E91D1170BDB0
:104C6000F369FFCF00800040FFF4FF1100440040D3
:104C700000480040004C0040005000400038014017
:104C800088100240020102000024F400805A00084B
:104C9000FFFC0F002DE9F843DDF820900446006882
:104CA000984616460F4609F10105C1693940C91BEE
:104CB000B1FA81F14909B1422AD1002DF5D0FCF7B2
:104CC00013FD0321B9F1000F23D0A0EB08004845E4
:104CD0001FD82068016811F0040FE6D0402F18BFDC
:104CE000802FE2D0C16911F0080F16D1C16911F40B
:104CF000006FDAD04FF4006101622046FFF774FEC6
:104D00000020032184F884002020C4F8900000E0F3
:104D10000021C8B201B0BDE8F08308250562204635
:104D2000FFF762FE0020012184F88400C4F890504F
:104D3000EFE700000148FEF701BD00BF4807002073
:104D4000FEE7000010B5074C00F00F03044AB0F175
:104D5000FF3F2344C8BF83180801187010BD00BF6F
:104D600000E400E014ED00E02DE9F84F2DED107B9C
:104D7000FDF726FCFFF75EFCFFF744F9FFF722F989
:104D8000FFF730FAFFF762FAFFF7BCF8FFF77CF99C
:104D9000FFF7F6F9EA484FF48031FDF719F9E94CCD
:104DA0007F212046FBF7D8FDE74D2046022205F182
:104DB0002001FCF7B1F9E548FEF788FAE44CDFF88A
:104DC0009483E54F09224FF6FF7320464146B847CA
:104DD000E24E4FF4FA70B047E14920460E224FF6FA
:104DE000FF73B8474FF47A70B04720464146092216
:104DF0004FF6FF73B8474FF4FA70B047D9A1204679
:104E000020224FF6FF73B84741F28830B047DDA14A
:104E100020460B224FF6FF73B8474FF4FA70B047A5
:104E2000DBA120460E224FF6FF73B8474FF4FA700D
:104E3000B047DBA1204627224FF6FF73B8474FF457
:104E40007A60B047E0A120460F224FF6FF73B847C3
:104E50004FF4FA70B047E0A120460D224FF6FF73E1
:104E6000B847FFF76BFAFFF725FADF4CDFA2002007
:104E7000002108234FF00008A047DEA200201021E7
:104E80000823A047DD4E282000213A220823B047FE
:104E9000282010213A220823B047D9A2002020213F
:104EA0000823A047D8A2002030210823A04778205B
:104EB000002156220823B0477820102141220823E0
:104EC000B0477820202156220823B047782030218F
:104ED00041220823B047FFF73BFBDFF834B39FEDD7
:104EE0008C8B9FED8D9B9FED8EAB9FED8FBB9FEDD0
:104EF00090CB9FED91DBDFF820A39FEDC8EA2869F6
:104F00000128FCD1C5F81080288C2881698C698122
:104F10006A692BF8121005EB42018886501C1E2886
:104F20006861ECD1002068611EE0002118E005F105
:104F3000340232F8107032F81130BB4282BFAB81BC
:104F400022F8117022F810303BF810303BF8112095
:104F50009A4282BFEA812BF811302BF810200131E0
:104F60008842E4D1E86101301E28DED11E20A8610C
:104F700000200DE005EB40012A88B1F84E101144E5
:104F800029800BEB40010130498B6A88114469800C
:104F90000528EFD112200523A8619E482988A0F892
:104FA00002800246A0F806806888C5F80080B1FB40
:104FB000F3F1B0FBF3F0A980E880C5E909101170A6
:104FC0001071090A000A51705071FFF711FBA8888F
:104FD00000EE100AB8EE400A10EE100AFBF774FA61
:104FE00058EC189B4A464346FBF7FCF956EC194B24
:104FF00022463346FBF7F6F953EC1A2BFBF7F2F98E
:1050000053EC1B2BFBF747F9FBF771FA0746E888CF
:1050100000EE100AB8EE400A10EE100AFBF754FA40
:105020004A464346FBF7DEF9224633464FF0000876
:10503000FBF7D8F953EC1C2BFBF7D4F953EC1D2BE1
:10504000FBF729F9EF62FBF752FA00EE107A2863BA
:105050000827382000210323BCEEC00A009710EE79
:10506000102AD047654E502000212E220823B04739
:1050700095ED0B0A00974FF47A74032320EE0E0A85
:10508000BDEEC00A10EE100AB0FBF4F101FB1402F1
:1050900058200021D04795ED0C0A009738201021A8
:1050A0000323BCEEC00A10EE102AD0475020102176
:1050B0002E220823B04795ED0C0A0097032320EE1B
:1050C0000E0ABDEEC00A10EE100AB0FBF4F101FBAF
:1050D000140258201021D0473820202141220223D9
:1050E0000097D047382030210A2202230097D0476A
:1050F000482030212E220823B0475020302105229D
:1051000001230097D047FFF723FAF8E600BF00BF5E
:10511000000000000000203F6666666666660A4082
:10512000D122DBF97EAA38401DC9E53FA4DFDA3F72
:10513000CDCCCCCCCC4C1640CD3B4ED1915CBE3FBF
:10514000AC050020E004002020000020FC06002028
:1051500048070020B65A0008553B00081115000802
:10516000A85A000841542B43574A41503D22455309
:10517000502D303153222C223132333435363738EA
:10518000220D0A0041542B43494653520D0A000098
:1051900041542B4349504D55583D300D0A000000F5
:1051A00041542B43495053544152543D225443508F
:1051B000222C223139322E3136382E342E31222C07
:1051C000383038300D0A000041542B4349504D4FC0
:1051D00044453D310D0A000041542B43495053458D
:1051E0004E440D0A0000000025450008565F4F554B
:1051F00054000000495F4F5554000000CD430008A3
:105200004F56503A000000004F43503A0000000053
:10521000A000002002000020C944000800007A44D9
:1052200002E008C8121F08C1002AFAD1704770476F
:10523000002001E001C1121F002AFBD170470000CD
:105240000000000000000102030406070809000036
:105250000000010203040000000000000000002F15
:10526000000000000700070000147F147F140024D2
:105270002A7F2A12002313086462003649552250FF
:1052800000000007000000001C2241000000412235
:105290001C000014083E08140008083E080800001E
:1052A00000A0600000080808080800006060000016
:1052B000002010080402003E5149453E0000427F94
:1052C0004000004261514946002141454B310018E0
:1052D00014127F10002745454539003C4A494930A2
:1052E000000171090503003649494936000649495C
:1052F000291E000036360000000056360000000867
:105300001422410000141414141400004122140843
:10531000000201510906003E4955592E007C121128
:10532000127C007F49494936003E41414122007FBD
:105330004141221C007F49494941007F0909090177
:10534000003E4149497A007F0808087F0000417FFC
:105350004100002040413F01007F08142241007FAE
:1053600040404040007F020C027F007F0408107F15
:10537000003E4141413E007F09090906003E41517E
:10538000215E007F0919294600464949493100013B
:10539000017F0101003F4040403F001F2040201F8F
:1053A000003F4038403F0063140814630007087052
:1053B000080700615149454300007F414100000258
:1053C00004081020000041417F0000040201020493
:1053D00000404040404000000102040000205454BE
:1053E0005478007F4844443800384444442000380E
:1053F0004444487F00385454541800087E09010280
:105400000018A4A4A47C007F080404780000447D54
:105410004000004080847D00007F10284400000090
:10542000417F4000007C04180478007C0804047864
:1054300000384444443800FC242424180018242450
:1054400018FC007C0804040800485454542000044C
:105450003F444020003C4040207C001C2040201C59
:10546000003C4030403C004428102844001CA0A0D0
:10547000A07C004464544C440000087F41000000BC
:10548000007F00000000417F0800000804081008A9
:10549000000000000000000000000000000000000C
:1054A000000000F8000000000000003330000000A1
:1054B00000160E00160E00000000000000000000A4
:1054C00040C07840C0784000043F04043F0404001A
:1054D000007088FC08300000001820FF211E00002A
:1054E000F008F000E018000000211C031E211E003F
:1054F00000F00888700000001E21232419272110C5
:10550000000000160E000000000000000000000077
:10551000000000E01804020000000007182040000E
:1055200000020418E00000000040201807000000FE
:10553000404080F0804040000202010F0102020062
:10554000000000F0000000000101011F0101010046
:10555000000000000000000000B07000000000002B
:105560000000000000000000000101010101010134
:1055700000000000000000000030300000000000CB
:1055800000000000806018040060180601000000A0
:1055900000E010080810E000000F102020100F009D
:1055A000001010F8000000000020203F2020000024
:1055B000007008080888700000302824222130007C
:1055C00000300888884830000018202020110E0084
:1055D0000000C02010F8000000070424243F24002D
:1055E00000F80888880808000019212020110E0002
:1055F00000E0108888180000000F112020110E0014
:1056000000380808C83808000000003F000000000B
:105610000070880808887000001C222121221C00CC
:1056200000E010080810E0000000312222110F00F5
:10563000000000C0C000000000000030300000008A
:10564000000000C0C0000000000080B0700000003A
:105650000000804020100800000102040810200013
:10566000404040404040400004040404040404005E
:1056700000081020408000000020100804020100F3
:10568000007048080808F0000000003036010000F3
:10569000C030C828E810E0000718272423140B00A6
:1056A0000000C038E0000000203C23020227382020
:1056B00008F8888888700000203F202020110E0004
:1056C000C0300808080838000718202020100800FB
:1056D00008F808080810E000203F202020100F00E4
:1056E00008F88888E8081000203F202023201800B0
:1056F00008F88888E8081000203F20000300000018
:10570000C03008080838000007182020221E0200B8
:1057100008F808000008F808203F210101213F2077
:10572000000808F8080800000020203F20200000A2
:1057300000000808F8080800C08080807F00000092
:1057400008F888C028180800203F200126382000CB
:1057500008F8080000000000203F20202020300032
:1057600008F8F800F8F80800203F003F003F20004C
:1057700008F830C00008F808203F200007183F0054
:10578000E01008080810E0000F10202020100F0083
:1057900008F808080808F000203F21010101000076
:1057A000E01008080810E0000F18242438504F00BB
:1057B00008F8888888887000203F2000030C30207B
:1057C00000708808080838000038202121221C00B9
:1057D000180808F8080818000000203F2000000002
:1057E00008F808000008F808001F202020201F00EB
:1057F0000878880000C83808000007380E0100004B
:10580000F80800F80008F800033C0700073C030014
:10581000081868808068180820302C03032C30207A
:105820000838C800C83808000000203F20000000E9
:1058300010080808C8380800203826212020180041
:10584000000000FE020202000000007F4040400015
:10585000000C30C000000000000000010638C0004D
:1058600000020202FE000000004040407F000000F5
:1058700000201008040810200000000000000000B4
:105880000000000000000000808080808080808018
:1058900000020408000000000000000000000000FA
:1058A00000008080808000000019242222223F20F6
:1058B00008F8008080000000003F112020110E0039
:1058C0000000008080800000000E112020201100C8
:1058D000000000808088F800000E112020103F207A
:1058E0000000808080800000001F222222221300FE
:1058F000008080F0888888180020203F2020000049
:105900000000808080808000006B949494936000FD
:1059100008F8008080800000203F210000203F2008
:1059200000809898000000000020203F2020000008
:10593000000000809898000000C08080807F0000F8
:1059400008F8000080808000203F24022D302000D5
:10595000000808F8000000000020203F2020000080
:105960008080808080808000203F20003F20003F9A
:10597000008080008080000000203F2100203F2028
:105980000000808080800000001F202020201F0059
:10599000808000808000000080FFA12020110E0088
:1059A0000000008080808000000E112020A0FF8079
:1059B000808080008080800020203F212000010026
:1059C000000080808080800000332424242419007B
:1059D000008080E0808000000000001F2020000088
:1059E0008080000000808000001F202020103F20C9
:1059F000808080000080808000010E300806010059
:105A000080800080008080800F300C030C300F00FD
:105A100000808000808080000020312E0E31200028
:105A2000808080000080808080818E701806010058
:105A300000808080808080000021302C2221300076
:105A400000000000807C020200000000003F404097
:105A500000000000FF00000000000000FF00000048
:105A60000002027C800000000040403F0000000077
:105A70000080404080000080000000000001010024
:105A8000010002000400060008000A000C001000DB
:105A90002000400080000001010101030701000017
:105AA000080402040801010141542B43574D4F449F
:105AB000453D310D0A0041542B5253540D0A00004C
:105AC000E05A0008000000202000000020520008DA
:105AD000005B000820000020C00B000030520008CE
