:020000040800F2
:100000006008002079020008DF2400082F21000882
:10001000DD2400086F040008993500080000000086
:10002000000000000000000000000000E3240008C1
:100030007104000800000000E1240008E524000825
:10004000930200089302000893020008930200083C
:10005000930200089302000893020008930200082C
:10006000930200089302000893020008930200081C
:10007000930200089302000893020008930200080C
:1000800093020008930200089302000893020008FC
:1000900093020008930200089302000893020008EC
:1000A00093020008930200089302000893020008DC
:1000B00093020008930200089302000893020008CC
:1000C00093020008930200089302000893020008BC
:1000D0009302000881350008930200088D3500085E
:1000E000930200089302000893020008930200089C
:1000F000930200089302000893020008930200088C
:10010000930200089302000893020008930200087B
:10011000930200089302000893020008930200086B
:10012000930200089302000893020008930200085B
:10013000930200089302000893020008930200084B
:10014000930200089302000893020008930200083B
:10015000930200089302000893020008930200082B
:10016000930200089302000893020008930200081B
:10017000930200089302000893020008930200080B
:1001800093020008930200089302000893020008FB
:100190009302000800000000930200089302000888
:1001A00093020008930200089302000893020008DB
:1001B00093020008930200089302000893020008CB
:1001C00093020008930200089302000893020008BB
:1001D000930200089302000800F002F800F03CF8D7
:1001E0000AA090E8000C82448344AAF10107DA4592
:1001F00001D100F031F8AFF2090EBAE80F0013F0A8
:10020000010F18BFFB1A43F001031847F435000033
:1002100014360000103A24BF78C878C1FAD85207C3
:1002200024BF30C830C144BF04680C607047000070
:100230000023002400250026103A28BF78C1FBD8EF
:10024000520728BF30C148BF0B6070471FB503F08D
:10025000B1FA1FBD10B510BD00F0CFF81146FFF781
:10026000F5FF03F0ABF900F0EDF803B4FFF7F2FF90
:1002700003BC00F0F5F80000094880470948004732
:10028000FEE7FEE7FEE7FEE7FEE7FEE7FEE7FEE746
:10029000FEE7FEE704480549054A064B70470000A3
:1002A00055250008D90100086002002060080020E0
:1002B000600400206004002053EA020C00F0698012
:1002C0002DE9F04B4FF00006002B1FBFB3FA83F56A
:1002D00003FA05F424FA05F65E4012BF1643B2FA9B
:1002E00082F502FA05F4C5F120051EBF22FA05FCCD
:1002F00044EA0C04203556EA044C4FEA144418BF73
:10030000641C4FF000084FF00009904271EB030CA1
:1003100039D3002919BFB1FA81F701FA07F6B0FA0B
:1003200080F700FA07F6C7F120071EBF20FA07FC86
:1003300046EA0C062037B6FBF4FCA7EB0507103F96
:1003400007F01F0BCBF120060CFA0BFB2CFA06F67C
:1003500044BFB3460026202FA4BF5E464FF0000BDB
:100360005BEA060C08BF4FF0010B19EB0B09ABFB66
:10037000027C48EB0608C01B06FB02CC0BFB03CC3F
:1003800071EB0C01C1E70B46024641464846BDE809
:10039000F08B13B54FF000004FF00001AFF3008079
:1003A000BDE81C4070474FF0000200B5134694466C
:1003B0009646203922BFA0E80C50A0E80C50B1F1BD
:1003C0002001BFF4F7AF090728BFA0E80C5048BFD1
:1003D0000CC05DF804EB890028BF40F8042B08BF6F
:1003E000704748BF20F8022B11F0804F18BF00F86B
:1003F000012B7047704770477047754600F02CF826
:10040000AE4605006946534620F00700854618B001
:1004100020B5FFF73FFFBDE820404FF000064FF04A
:1004200000074FF000084FF0000B21F00701AC4629
:10043000ACE8C009ACE8C009ACE8C009ACE8C00948
:100440008D46704710B50446AFF300802046BDE8E6
:100450001040FFF70ABF000000487047FC01002071
:1004600001491820ABBEFEE7260002007047FEE7F8
:10047000704772B6FEE710B590F8253000210122D2
:10048000022B03D00421C163012122E003681C6810
:1004900024F00E041C60836C1C6824F480741C60BF
:1004A00003681C6824F001041C6090F84430046C5C
:1004B00003F01F0302FA03F36360D0E913345C60B6
:1004C000436D33B11C6824F480741C60D0E9163489
:1004D0005C6080F82520002280F82420084610BDAA
:1004E00070B590F82520002401212346022A07D068
:1004F0000422C26380F8251080F82430012429E00A
:100500000268156825F00E0515600268156825F06B
:1005100001051560826C156825F48075156090F8EA
:100520004420056C02F01F0201FA02F26A60D0E971
:1005300013255560426D32B1156825F4807515603C
:10054000D0E91625556080F8251080F82430816B9D
:1005500001B18847204670BD70B5044600F03CF9F3
:100560000546601C02D004484068044400F034F999
:10057000401BA042FAD370BD180000202DE9F04FB7
:10058000DFF82092002301260324A9F1040B85B093
:100590000F2709F1040AABF1040EFAE006FA03F59D
:1005A0002A407CD091F804C00CF0030CBCF1010F80
:1005B00002D0BCF1020F26D1D0F808C0CDF800C09F
:1005C0004FEA430C04FA0CF8CDF810C0DDF800C077
:1005D0002CEA080CCDF800C0D1F80C80DDF810C072
:1005E00008FA0CF8DDF800C048EA0C08C0F80880EA
:1005F000D0F804C02CEA050C0D79C5F300159D4018
:1006000045EA0C0545600D79ED43AD070ED0C56890
:100610004FEA430804FA08FC25EA0C05D1F808C0A3
:100620000CFA08FC4CEA050CC0F80CC00D7905F07A
:100630000305022D16D1DD0800EB850CCDF808C0AE
:10064000DCF820805D074FEAD56C07FA0CF528EA44
:1006500005080D6905FA0CF5DDF808C045EA08053E
:10066000CCF8205005684FEA430CCDF808C004FAD6
:100670000CFC25EA0C0591F804C00CF00308DDF829
:1006800008C008FA0CF848EA0508C0F800804D6870
:1006900015F4403F7CD0444DD5F860C000E077E0D1
:1006A0004CF0010CC5F860C02D6E23F0030C05F072
:1006B000010500953D4D65440295AD684FEA837C88
:1006C0004FEA1C7807FA08FC25EA0C05B0F1904FB8
:1006D00006D0DFF8DCC0604505D14FF0010C20E00A
:1006E0004FF0000C1DE0DFF8CCC0604502D14FF0A8
:1006F000020C16E0DFF8C0C0604502D14FF0030CD9
:100700000FE0DFF8B8C0604502D14FF0040C08E0FC
:10071000DFF8ACC0604502D14FF0050C01E04FF0AE
:10072000060C0CFA08FC4CEA050C029DC5F808C042
:10073000D9F80050CC46D1F8048095435FEAC82828
:1007400000D51543CCF80050DAF80050D446D1F863
:10075000048095435FEA882800D51543CCF8005003
:10076000DBF80050DC46D1F8048095435FEA883816
:1007700000D51543CCF80050DEF80050F446D1F80F
:10078000048095435FEAC83800D51543CCF8005083
:100790005B1C0A6832FA03F57FF400AF05B0BDE8D0
:1007A000F08F0000080401400010024000000140EA
:1007B0000004004800080048000C004800100048F1
:1007C000001400480069084000D0012070470AB1B9
:1007D00081617047816270470148806870470000FE
:1007E0001800002002488168426811448160704707
:1007F0001800002010B50024032000F073F80F202B
:1008000000F008F808B1012401E000F025F82046C6
:1008100010BD000070B50E4E05460024706898B1FA
:100820004FF47A71B1FBF0F00A490968B1FBF0F0BE
:1008300000F09CFD40B9102D06D200222946501E22
:1008400000F030F8356000E00124204670BD000063
:1008500018000020240000200A4882B0016E41F0F8
:1008600001010166016E01F001010091816D41F00D
:1008700080518165806D00F08050009002B000F0E2
:10088000A1B8000000100240002809DB00F01F02A0
:10089000012191404009800000F1E020C0F80011E2
:1008A00070470000F0B40E4B1B680C46C3F30223E4
:1008B000C3F10705042D00D90425191D072901D20C
:1008C000002300E0DB1E012606FA05F1491E214047
:1008D00099409E40761E16403143F0BC02F05DBE4A
:1008E0000CED00E0064900F0070208684FF6FF0330
:1008F000184040EA0220034A104308607047000095
:100900000CED00E00000FA052B492C4B0A6832215F
:100910004A432B4940B1B0F5007F086829D020F444
:10092000C06040F480602CE00868C0F341200228D9
:1009300004D051F8800F20F4807022E0D1F88000BC
:1009400020F48070C1F88000086820F4C06040F492
:1009500000700860B2FBF3F0401C00E0401E4A69E2
:10096000520501D50028F9D1486940050AD5032070
:100970007047C0F34120022806D051F8800F40F4A0
:100980008070086000207047D1F8800040F48070CB
:10099000C1F88000086820F4C06040F4007008606E
:1009A000B2FBF3F0401C00E0401E4A695205DBD563
:1009B0000028F9D1D8E700002400002040420F00B1
:1009C000007000400248816841F4804181607047B6
:1009D000007000402DE9F843044600680026BB4D36
:1009E00000035ED5A86D0027C00008D4A86D40F0B4
:1009F0008050A865A86D012700F080500090DFF8B6
:100A0000D092D9F8001041F48071C9F80010FFF7B6
:100A1000E3FE804606E000BFFFF7DEFEA0EB080025
:100A200002282BD8D9F80000C005F5D5D5F89000DC
:100A300010F4407014D0216D814211D0D5F890008F
:100A4000D5F8901020F4407041F48031C5F8901032
:100A5000D5F8901021F48031C5F89010C5F89000B9
:100A6000C00711D0FFF7B8FE804641F2883907E091
:100A7000FFF7B2FEA0EB0801494501D903260BE0C0
:100A8000D5F890008007F3D5D5F89000216D20F4BB
:100A900040700843C5F890001FB1A86D20F0805049
:100AA000A8652078C00707D0D5F88800616820F0D5
:100AB00003000843C5F888002078800707D5D5F8DB
:100AC0008800A16820F00C000843C5F88800207851
:100AD000400707D5D5F88800E16820F030000843CA
:100AE000C5F888002078000707D5D5F88800216967
:100AF00020F0C0000843C5F888002078C00607D55C
:100B0000D5F88800616920F440700843C5F8880072
:100B10002078800607D5D5F88800A16920F44060C8
:100B20000843C5F888002078400607D5D5F8880026
:100B3000E16920F440500843C5F888002078000699
:100B400007D5D5F88800216A20F440400843C5F84D
:100B500088002088C00507D5D5F88800616A20F490
:100B600040300843C5F888002068800307D5D5F8D1
:100B70009C00A16A20F003000843C5F89C0020886F
:100B8000800507D5D5F88800E16A20F440200843A5
:100B9000C5F88800208840050FD5D5F88800216B5E
:100BA00020F440100843C5F88800206BB0F5801F82
:100BB00003D1E86840F48010E860208800050FD574
:100BC000D5F88800616B20F440000843C5F8880020
:100BD000606BB0F5800F03D1E86840F48010E860E6
:100BE0002088C0040FD5D5F88800A16B20F0407094
:100BF0000843C5F88800A06BB0F1807F03D1E86896
:100C000040F48010E86020884FF0006180040ED529
:100C1000D5F88800E26B20F040601043C5F88800EA
:100C2000E06B884203D1E86840F48010E8602088D7
:100C300040040ED5D5F88800226C20F040601043A7
:100C4000C5F88800206C884203D1E86840F4801021
:100C5000E860208800040FD5D5F88800616C20F08A
:100C600040500843C5F88800606CB0F1805F03D144
:100C7000E86840F48030E8602068C0030FD5D5F8FC
:100C80008800A16C20F040400843C5F88800A06CA3
:100C9000B0F1804F03D1E86840F48030E86020680C
:100CA00040030FD5D5F89C00E16C20F440100843B8
:100CB000C5F89C00E06CB0F5001F03D1E86840F473
:100CC0008010E8603046BDE8F88300000010024064
:100CD000007000402DE9F0470E4605004FF0000778
:100CE00025D0DFF8AC81D8F8000000F00F00B0424A
:100CF0000CD2D8F8001021F00F013143C8F80010D1
:100D0000D8F8000000F00F00B04210D12968614C03
:100D1000C80741F2883A5AD06868DFF87C91032806
:100D200008D0022820682DD0400500282CDB0120A7
:100D3000BDE8F08720688001F9D5E06800F0030283
:100D4000E068C0F30310401C032A19D0534A00BFC7
:100D5000B2FBF0F0E268C2F306225043E268C2F34D
:100D60004162521C5200B0FBF2F0484517D9A0680E
:100D700010F0F00F0CD0880711D5A86840B10EE034
:100D8000474AE5E78003D0E700F0B6F8484506D9C2
:100D9000A06820F0F00040F08000A0608027A068EC
:100DA000696820F003000843A060FFF715FD814645
:100DB00006E000BFFFF710FDA0EB090151453AD84E
:100DC000A068696800F00C00B0EB810FF2D12868D0
:100DD000810714D5400703D5A06840F4E060A06007
:100DE0002878000705D5A06820F4605040F4E06042
:100DF000A060A068A96820F0F000084304E0802FFC
:100E000003D1A06820F0F000A060D8F800104046A0
:100E100001F00F01B14216D9016821F00F013143F1
:100E20000160FFF7D9FC074607E000BFFFF7D4FCDD
:100E3000C11B514501D903207AE7D8F8000000F022
:100E40000F00B042F2D12878400705D5A068E968C4
:100E500020F4E0600843A0602878000706D5A06869
:100E6000296920F4605040EAC100A06000F044F815
:100E7000A1680C4AC1F30311515C01F01F01C84085
:100E80000949086009480068BDE8F047FFF7C2BC9F
:100E9000002002400010024000B4C4040024F4000A
:100EA00000366E01E63700082400002018000020FC
:100EB0000548064900688968054AC1F30221515C6A
:100EC00001F01F01C84070472400002000100240BC
:100ED000F63700080548064900688968054AC1F3E5
:100EE000C221515C01F01F01C8407047240000205E
:100EF00000100240F6370008184910B58868C0F3A2
:100F000081021748012A0BD08A68164BC2F381026E
:100F1000022A06D08A68C2F38102032A03D0002085
:100F200010BD184610BDCA6802F00304CA68C2F3B7
:100F30000312521C032C02D0B0FBF2F001E0B3FB11
:100F4000F2F0CA68C968C2F306225043C1F3416196
:100F5000491C4900B0FBF1F010BD00000010024038
:100F60000024F40000366E012DE9F84304007AD025
:100F70002078F84DC00747D0A868E96800F00C0059
:100F800001F003010C2802D0082817D001E0032942
:100F900014D06068B0F5803F17D0B0F5A02F286856
:100FA00017D020F480302860286820F48020286042
:100FB0006068E0B1FFF710FC064614E02868800383
:100FC00022D560680028D2D01EE0286840F4803026
:100FD000EDE740F480202860F7E700BFFFF7FCFB57
:100FE000801B642870D828688003F7D50CE0FFF7D1
:100FF000F3FB064605E000BFFFF7EEFB801B64280D
:10100000F0D828688003F7D4207880074CD5A868EA
:10101000E96800F00C0001F003010C2802D004285C
:101020000DD001E002290AD0E068002828682BD002
:1010300040F480702860FFF7CFFB064619E028686F
:10104000400502D5E068002891D06868217C20F036
:10105000FE4040EA01606860BF480068FFF7DAFBC5
:10106000002800D120E072E1FFF7B6FB801B0228C8
:10107000B8D828684005F7D56868217C20F0FE4084
:1010800040EA016068600FE020F480702860FFF79C
:10109000A3FB064605E000BFFFF79EFB801B02286E
:1010A000A0D828684005F7D42078000729D56069C2
:1010B0000028D5F8940013D040F00100C5F8940042
:1010C000FFF78AFB064606E090E000BFFFF784FBCF
:1010D000801B022886D8D5F894008007F6D510E04A
:1010E00020F00100C5F89400FFF776FB064604E007
:1010F000FFF772FB801B022878D8D5F89400800790
:10110000F6D42078400761D5A86D0026C00008D429
:10111000A86D40F08050A865A86D012600F08050B1
:1011200000908E480168C90511D40168804641F4D9
:1011300080710160FFF750FB074604E0FFF74CFBAE
:10114000C01B022852D8D8F80000C005F6D5A06808
:10115000012815D00528D5F8900016D020F0010000
:10116000C5F89000D5F8900020F00400C5F8900074
:10117000A06841F28838B8B1FFF72EFB07460EE0B1
:10118000D5F8900040F00100F0E740F00400C5F809
:101190009000F5E7FFF720FBC11B414526D8D5F8A5
:1011A00090008007F6D50CE0FFF716FB074604E039
:1011B000FFF712FBC11B414518D8D5F890008007F6
:1011C000F6D41EB1A86D20F08050A8652078800666
:1011D00029D5A0690028D5F8980013D040F0010067
:1011E000C5F89800FFF7F8FA064606E075E000BF7C
:1011F000FFF7F2FA801B02286FD8D5F89800800715
:10120000F6D510E020F00100C5F89800FFF7E4FAE9
:10121000064604E0FFF7E0FA801B02285DD8D5F807
:1012200098008007F6D4E069F0B3A968C1F38101A2
:1012300003295DD00228286820F08070286003D040
:10124000FFF7CAFA04464BE0FFF7C6FA064604E089
:10125000FFF7C2FA801B02283FD828688001F7D424
:10126000F4E908016FF00F0202EB01110843218A33
:101270005204490802EB4151A26841EA02210843A5
:10128000217D4FF07E42490802EB41610843217BFA
:1012900040EAC160E968324A11400843E8602868C2
:1012A00040F08070286000E05EE0E86840F0807008
:1012B000E860FFF791FA044605E000BFFFF78CFAFB
:1012C000001B022809D828688001F7D54CE000BF30
:1012D000FFF782FA001B022802D90320BDE8F88339
:1012E00028688001F4D4E8681E490840E8603BE0C3
:1012F0000128F3D0E868226A00F00301914226D168
:10130000616A00F0F0020901103991421FD1A26A0E
:1013100000F4FE41B1EB022F19D194F82C2000F01B
:101320007841B1EBC26F12D1218E00F4C00249089E
:101330004905A1F50011914209D194F8341000F04B
:10134000C06049084906A1F1007181420CD001201A
:10135000C4E70000001002401800002000700040A8
:101360000C809F01FCFFEEFE0020B7E710B5401E89
:10137000B0F1807F01D3012010BD4FF0E024606107
:101380000F21601702F009F90020A06107202061F9
:10139000002010BD30B590F83C20012A45D0012234
:1013A00080F83C20CA688B6822F440721A434B686C
:1013B00022F480621A430B6822F400621A430B691C
:1013C00022F480521A434B6922F400521A430B6BE9
:1013D00022F480421A430B8B22F4702242EA034229
:1013E000CB6922F080521A43114D03680024AB42AE
:1013F00005D0104DAB4202D00F4DAB4210D10D8D38
:1014000022F4700242EA05520D6A22F080722A43E9
:101410004D6A22F000722A43C96A22F000520A4340
:101420005A6480F83C40002030BD022030BD0000EE
:10143000002C01400034014000500140F0B590F80C
:101440003C20012A43D0012580F83C50022280F83C
:101450003D2003685A689C681E4E1F4FDFF87CC011
:10146000B34203D0BB4201D0634504D122F4700ED5
:101470004A6842EA0E02DFF868E002EA0E02D1F89A
:1014800000E04EEA020EC3F804E00268B24212D055
:10149000B2F1804F0FD0134B9A420CD0124B9A42AC
:1014A00009D0124B9A4206D0BA4204D0104B9A424D
:1014B00001D0624504D1896824F08003194391600A
:1014C00080F83D50002180F83C100846F0BD022015
:1014D000F0BD0000002C01400034014000500140EC
:1014E0008FFFFFFD0004004000080040000C00409A
:1014F0000040014010B5040003D094F83D0010B145
:1015000007E0012010BD002084F83C00204600F0D8
:1015100023F8022084F83D00211D206801F022F804
:10152000012084F8480084F83E0084F83F0084F8E5
:10153000400084F8410084F8420084F8430084F8B5
:10154000440084F8450084F8460084F8470084F895
:101550003D00002010BD000008B50C4A01680C4891
:10156000914207D1016E41F400610166006E00F402
:10157000006009E0074A914207D1016E41F4005131
:101580000166006E00F40050009008BD002C014080
:10159000001002400034014070B5044690F83C0051
:1015A000002501281CD0012684F83C60022084F824
:1015B0003D0022689068334B184020F47F409060D3
:1015C0000868B0F5005F2ED016DC402849D009DC51
:1015D000D0B1102818D0202816D0302849D113E0D7
:1015E000022070BD50282AD0602830D070280FD03B
:1015F000B0F5805F3DD13DE010F00F0F39D1011102
:10160000A1F58031072934D822680146104625E02B
:10161000CB68D1E90121206801F023F820688168B6
:1016200041F0770109E0CB68D1E90121206801F0A0
:1016300018F82068816841F4804181601AE0CA6826
:101640004968206801F0E2F95021206806E0CA6884
:101650004968206801F0EBF96021206801F00CF87E
:1016600008E0CA684968206801F0D0F94021206884
:10167000F4E7012584F83D60002084F83C0028460A
:1016800070BD000088FFCEFF30B587B0044614213E
:101690006846FEF788FE2468154D0023154902228E
:1016A0001548AC420ED1CC6C44F00404CC64C96C37
:1016B00001F00401059101218DE80E00CDE903320E
:1016C000694611E00D4DAC4210D1CC6C44F00404DD
:1016D000CC64C96C01F004010591C0218DE80E00B5
:1016E0000421CDE903316946FEF748FF07B030BD5C
:1016F000002C014000100240000800480034014066
:1017000070B5044690F83C0000260D4601280BD029
:10171000012084F83C000C2A4AD007DC82B1042A5C
:1017200020D0082A06D131E0022070BD102A53D003
:10173000142A63D00126002084F83C00304670BD96
:10174000206800F0A3FF2068816941F008018161F1
:101750002068816921F004018161206881692A691A
:10176000114311E0206800F0E7FF2068816941F42F
:10177000006181612068816921F480618161206854
:1017800081692A6941EA02218161D4E7206801F078
:1017900023F82068C16941F00801C1612068C1696E
:1017A00021F00401C1612068C1692A69114311E077
:1017B000206801F061F82068C16941F40061C161ED
:1017C0002068C16921F48061C1612068C1692A690A
:1017D00041EA0221C161AEE7206801F09DF820686E
:1017E000016D41F0080101652068016D21F00401DF
:1017F00001652068016D2A69114311E0206801F03C
:10180000C7F82068016D41F4006101652068016D31
:1018100021F4806101652068016D2A6941EA022195
:10182000016588E710B5040003D094F83D0010B1BD
:1018300007E0012010BD002084F83C00204600F0A5
:1018400022F8022084F83D00211D206800F08AFE65
:10185000012084F8480084F83E0084F83F0084F8B2
:10186000400084F8410084F8420084F8430084F882
:10187000440084F8450084F8460084F8470084F862
:101880003D00002010BD7047F0B50025044602223F
:1018900069B1042916D008295DD00C2966D0102919
:1018A0006BD094F8430001286ED00120F0BD94F86D
:1018B0003E000128F9D184F83E202068C26842F039
:1018C000020209E094F83F000128EED184F83F209D
:1018D0002068C26842F00402C2600122206800F061
:1018E000B3FE2F4920682F4A2F4B304E88420BD031
:1018F000904209D0984207D02D4FB84204D02D4FC6
:10190000B84201D0B04203D1476C47F40047476466
:101910002068884211D0B0F1804F0ED0264988420D
:101920000BD02649884208D02549884205D09042EC
:1019300003D0984201D0B04207D18168214A1140BA
:10194000062906D0B1F5803F03D0016841F00101BE
:1019500001602846F0BD94F840000128A5D184F824
:1019600040202068C26842F00802B5E794F84100C0
:1019700001289AD184F8412008E094F84200012817
:1019800093D184F8422003E084F843200C2901D04D
:101990000125DEE72068C26842F010029CE70000E3
:1019A000002C014000340140004001400050014043
:1019B000004401400048014000040040000800408D
:1019C000000C00400700010070B50D0004464FF008
:1019D000000607D0042D0AD0082D0DD00C2D10D0F4
:1019E00001264FE02068C16821F002010DE0206867
:1019F000C16821F0040108E02068C16821F00801F5
:101A000003E02068C16821F01001C160002229466E
:101A1000206800F019FE244B41F2111120688A0061
:101A200098420ED0214B98420BD0214B984208D0BF
:101A3000204B984205D0204B984202D01F4B984231
:101A400009D1036A0B4206D1036A134203D1436CE6
:101A500023F4004343642068036A0B4206D1016A01
:101A6000114203D1016821F00101016001205DB143
:101A7000042D0CD0082D0DD00C2D0ED0102D0FD014
:101A800084F84300304670BD84F83E00FAE784F8DD
:101A90003F00F7E784F84000F4E784F84100F1E7FD
:101AA00084F84200EEE70000002C014000340140C1
:101AB0000040014000440140004801400050014006
:101AC00090F88410012918D0012180F88410242175
:101AD000C0F8881001680A680B6823F001030B60E6
:101AE00022F0005100224266036819602021C0F8EC
:101AF000881080F88420104670470220704770B527
:101B00000446D0F88C000025202801D0022070BDAA
:101B100069B162B10120E06600202067204601F033
:101B20005DFCE06E012804D00125284670BD01202F
:101B300070BD216810200862216851E8000F40F054
:101B4000100041E80002002AF6D1EEE710B5064A7F
:101B50000168914206D111220449FFF7D0FF0449E0
:101B60000120087010BD000000480040280000203F
:101B700000000020704770B5044690F884000128EA
:101B80001DD0012084F884002420C4F88800206837
:101B90000568026822F0010202602068826822F073
:101BA00060620A438260204600F054FF20680560AE
:101BB0002020C4F88800002084F8840070BD022032
:101BC00070BD70B5044690F8840001281DD0012036
:101BD00084F884002420C4F888002068056802681E
:101BE00022F0010202602068826822F060420A430B
:101BF0008260204600F02EFF206805602020C4F897
:101C00008800002084F8840070BD022070BD7047F9
:101C1000704770472DE9F04103680446D869196898
:101C20009A6840F60F0528424FF000054FF0020673
:101C30000AD187067ED501F0200702F0805C57EAC2
:101C40000C0777D0616F3AE1B24FDFF8CCC2174092
:101C500001EA0C0C57EA0C0C6CD05FEAC07C0CD08B
:101C60005FEAC15C09D54FF0010CC3F820C0D4F87D
:101C7000903043F00103C4F89030830709D5D307AF
:101C800007D023681E62D4F8903043F00403C4F8F0
:101C9000903043070AD5D30708D02668042333625F
:101CA000D4F8903043F00203C4F8903003070CD509
:101CB00001F020033B4308D0266808233362D4F8A0
:101CC000903043F00803C4F8903003050BD54B0166
:101CD00009D526684FF400633362D4F8903043F09E
:101CE0002003C4F89030D4F89030002B3DD080060B
:101CF00009D501F0200002F08051084303D0616F44
:101D000009B120468847D4F89000216889684906BF
:101D100002D410F0280F2AD0204600F081FF20685E
:101D2000806840061ED52068083050E8001F21F06A
:101D3000400100E021E040E80012002AF3D1D4F88D
:101D4000800078B175498163D4F88000FEF7C8FB44
:101D500000280AD0D4F88000816B00E02046BDE85E
:101D6000F04108472046FFF754FFBDE8F0812046C8
:101D7000FFF74FFFC4F89050F7E7D4F86CC0202766
:101D8000BCF1010F7ED15FEAC06C7BD55FEAC16C0C
:101D900078D51020186220688068400645D5D4F8B0
:101DA0008010086840680004000CDED0B4F85C20A5
:101DB0008242DAD9A4F85E000868006880062CD454
:101DC000216851E8000F20F4807041E80002002AE9
:101DD000F6D12068083050E8001F21F0010140E8EA
:101DE0000012002AF5D12068083050E8001F21F0C9
:101DF000400140E80012002AF5D1C4F88C70E56675
:101E0000206850E8001F21F0100140E80012002A6D
:101E1000F6D1D4F88000FEF72EFB2667B4F85C00FC
:101E2000B4F85E10401A81B230E0B4F85C00B4F847
:101E30005E10401A81B2B4F85E00002895D00029E7
:101E400093D0226852E8000F20F4907042E800031B
:101E5000002BF6D12F4BDB432068083050E8002FD1
:101E60001A4040E8002CBCF1000FF5D1C4F88C708A
:101E7000E5666567226852E8000F20F0100042E82E
:101E8000000300E006E0002BF4D126672046FFF7B0
:101E90005DFE6AE7C60209D5560207D54FF48010E9
:101EA00018622046BDE8F041FFF7B2BE03060AD52E
:101EB00001F0800302F40002134304D0A16F002953
:101EC0007FF44CAF51E7420611D54A060FD52046A4
:101ED000026852E8001F21F0400142E80013002B85
:101EE000F6D1C0F88870856700F020F93DE702025E
:101EF00006D54A0004D52046BDE8F041FFF787BE6D
:101F0000C001C6D50029C4DA2046BDE8F041FFF77C
:101F100031BE000001000010200100040D2C00085B
:101F200010B5040003D0D4F8880010B107E00120F8
:101F300010BD002084F88400204600F027F82420FB
:101F4000C4F888002068016821F001010160A06ADE
:101F500010B1204600F0A0FD204601F0F3F8012862
:101F6000E6D02068416821F4904141602068816892
:101F700021F02A0181602068016841F001010160BF
:101F80002046BDE8104000F0EBBD0000F0B59BB06E
:101F90000446142115A8FEF706FA54216846FEF7F8
:101FA00002FA32492068324C02260727002588426F
:101FB0002BD10120CDE900056846FEF70BFD08B1E5
:101FC000FEF757FA206E40F480402066206E00F441
:101FD00080401A90E06C40F00100E064E06CCDE9D4
:101FE000166500F001001A904FF4C060CDE9185753
:101FF000159015A94FF09040FEF7C0FA0022114647
:102000002520FEF74FFC25202CE01A4988422BD1D1
:102010000420009003956846FEF7DCFC08B1FEF74B
:1020200028FAA06D40F48020A065A06D00F4802007
:102030001A90E06C40F00200E064E06CCDE91665B7
:1020400000F002001A904FF44060CDE91857159047
:1020500015A90948FEF792FA002211462720FEF73B
:1020600021FC2720FEF710FC1BB0F0BD003801401A
:1020700000100240004800400004004870472DE96D
:10208000F8430446D0F88800984616460D462028A6
:1020900002D00220BDE8F883A5B19EB10020C4F8AB
:1020A00090002120C4F888001834FEF795FBA6871D
:1020B0008146E68754F8100C2027183CB0F5805F65
:1020C00002D003E00120E5E7206910B12E4600258B
:1020D00010E000260EE08021204601F007FAC0B98A
:1020E000DEB116F8010B21688862B4F85600401E74
:1020F000A4F85600B4F856004B464FF00002CDF855
:1021000000800028E7D14FF04001204601F0EEF9B1
:1021100040B1C4F888700320BCE735F8020BC0F367
:102120000800E0E7C4F888700020B3E77047FEE7D6
:102130002DE9F04786B014216846FEF734F93B4894
:10214000C16C41F00401C164C16C01F0040105914E
:10215000C16C41F02001C164C16C01F02001059106
:10216000C16C41F00201C164C16C01F00201059132
:10217000C16C41F00101C164C16C01F00101059124
:10218000C16C41F00801C164C06C294F00F0080027
:1021900040F608440590002221463846FEF717FB1A
:1021A000DFF89080002202214046FEF710FB4FF43A
:1021B00000464FF09049002231464846FEF707FBA3
:1021C000DFF874A0002204215046FEF700FB012531
:1021D000CDE9004500240294694638460394FEF791
:1021E000CDF910208DE8310069463846FEF7C6F972
:1021F00002200090CDE90154694640460394FEF761
:10220000BDF90096CDE90154694648460394FEF7AE
:10221000B5F904200090CDE9015469465046039475
:10222000FEF7ACF906B0BDE8F087000000100240F0
:102230000008004800040048000C004810B59CB09D
:10224000002419941A9417941894149415941C212A
:102250000DA81694FEF7A7F834216846FEF7A3F8F8
:102260002D482C4901602221C0E9011440F2E731D8
:10227000C0E9031444618461FFF73CF908B1FEF73B
:10228000F8F84FF48050179017A92348FFF784F906
:1022900008B1FEF7EEF82048FFF7C4FA08B1FEF7E0
:1022A000E8F81494159414A91B481694FFF7C6F87F
:1022B00008B1FEF7DEF860200D904FF4FA70CDE91A
:1022C0000E0410941194129400220DA91248139434
:1022D000FFF716FA08B1FEF7CCF800944FF400505F
:1022E000CDE9044003940003CDE908400194029431
:1022F000069407940A940B94694607480C94FFF7D8
:1023000049F808B1FEF7B5F80348FFF7BDF91CB06E
:1023100010BD0000002C01403C00002010B59CB016
:10232000002419941A9417941894149415941C2149
:102330000DA81694FEF737F834216846FEF733F8F7
:10234000314830490160AA21C0E9011440F2E73167
:10235000C0E9031444618461FFF7CCF808B1FEF7CB
:1023600088F84FF48050179017A92748FFF714F901
:1023700008B1FEF77EF82448FFF754FA08B1FEF7DB
:1023800078F81494159414A91F481694FFF756F87A
:1023900008B1FEF76EF860200D904FF4FA70CDE9A9
:1023A0000E0410941194129400220DA9164813944F
:1023B000FFF7A6F908B1FEF75CF804220DA9124850
:1023C000FFF79EF908B1FEF754F800944FF400505F
:1023D000CDE9044003940003CDE908400194029440
:1023E000069407940A940B94694607480C94FEF7E8
:1023F000D1FF08B1FEF73DF80348FFF745F91CB0DF
:1024000010BD00000034014088000020184810B5BD
:10241000164901604FF416414160002181600C2291
:10242000C160C0E904128161C161016241628162DF
:10243000FFF776FD08B1FEF71CF800210C48FFF706
:10244000C0FB08B1FEF715F800210948FFF793FB20
:1024500008B1FEF70EF80648FFF732FB002803D05C
:10246000BDE81040FEF705B810BD0000003801407F
:10247000D4000020184810B5164901604FF41641E9
:102480004160002181600C22C160C0E904128161B9
:10249000C161016241628162FFF742FD08B1FDF74F
:1024A000E8FF00210C48FFF78CFB08B1FDF7E1FFC6
:1024B00000210948FFF75FFB08B1FDF7DAFF064886
:1024C000FFF7FEFA002803D0BDE81040FDF7D1BFAA
:1024D00010BD00000048004068010020FEE7FEE754
:1024E00070477047FEF77EB910B594B03821684642
:1024F000FDF759FF14210EA8FDF755FF0020FEF748
:1025000003FA012000900004032406210190CDE984
:10251000084102205521CDE90A1007900C900D903A
:102520006846FEF721FD08B172B6FEE70F20CDE93F
:102530000E040020109011904FF48060129004213E
:102540000EA8FEF7C7FB002801D072B6FEE714B054
:1025500010BD00000248016841F47001016070473D
:1025600088ED00E02DE9F04F02682E4B2E4E2F4FE4
:10257000DFF8BCC02F4C304D4FF0804B98420BD051
:10258000584509D0B04207D0B84205D0604503D0C5
:10259000A04201D0A84204D122F070084A6842EA61
:1025A0000802DFF89880DFF89890DFF898A098424A
:1025B00011D058450FD0B0420DD0B8420BD0604575
:1025C00009D0A04207D0404505D0484503D050452A
:1025D00001D0A84203D122F44076CA6832434E6942
:1025E00022F08002324302608A68C2620A68826214
:1025F000984209D0A04207D0404505D0484503D0B5
:10260000504501D0A84201D109690163012141610E
:102610000169C90703D0016921F001010161BDE829
:10262000F08F0000002C0140000400400008004032
:10263000000C0040003401400050014000400140C7
:10264000004401400048014010B501F01F03012182
:10265000046A99408C430462016A9A401143016202
:1026600010BD10B5846842EA032224F47F440A4373
:102670002243826010BD00008268034B1A400A4367
:1026800042F00701816070478FFFCFFF2DE9F047CF
:10269000056A026A22F001020262436882691F4CE5
:1026A00025F0020522400C6822F0030214438A68D8
:1026B0001C4E2A431A4D1C4FDFF870C0DFF8709093
:1026C000DFF870A0A84209D0B04207D0B84205D0C8
:1026D000604503D0484501D0504506D122F0080896
:1026E000CA6842EA080222F00402A84209D0B042B5
:1026F00007D0B84205D0604503D0484501D05045C9
:1027000005D14D6923F440731D438B692B4343600E
:102710008461496841630262BDE8F0878FFFFEFF74
:10272000002C0140003401400040014000440140C1
:102730000048014000500140F0B5056A026A22F0ED
:1027400010020262426883691C4C1E4E23400C68D2
:1027500023F4407343EA042425F020038D681A4FC4
:1027600043EA0513164DA84203D0B04201D0B84247
:1027700007D1D1F80CC023F0800343EA0C1323F0F7
:102780004003A8420CD0B0420AD0104DA84207D056
:102790000F4DA84204D00F4DA84201D0B84207D136
:1027A0004D6922F4406242EA85028D6942EA85025F
:1027B00042608461496881630362F0BDFF8FFFFE60
:1027C000002C014000340140005001400040014015
:1027D0000044014000480140F0B5056A026A22F455
:1027E000807202624368C2691C4C1E4E22400C6813
:1027F00022F00302144325F400728D681A4F42EA56
:102800000522174DA84203D0B04201D0B84207D1EB
:10281000D1F80CC022F4006242EA0C2222F4806259
:10282000A8420CD0B0420AD0104DA84207D0104D9B
:10283000A84204D00F4DA84201D0B84207D14D693B
:1028400023F4405343EA05138D6943EA05134360BB
:10285000C4614968C1630262F0BD00008FFFFEFFE2
:10286000002C014000340140005001400040014074
:102870000044014000480140F0B5056A026A22F4B4
:10288000805202624268C3691C4C1E4E23400C6891
:1028900023F4407343EA042425F400538D681A4F4F
:1028A00043EA0533164DA84203D0B04201D0B842E6
:1028B00007D1D1F80CC023F4004343EA0C3323F4CE
:1028C0008043A8420CD0B0420AD0104DA84207D095
:1028D0000F4DA84204D00F4DA84201D0B84207D1F5
:1028E0004D6922F4404242EA85128D6942EA85121E
:1028F0004260C461496801640362F0BDFF8FFFFE5E
:10290000002C0140003401400050014000400140D3
:10291000004401400048014030B5056A026A22F4D3
:10292000803202624268036D124C23400C681C43E3
:1029300025F400330D8943EA05430F4DA8420ED01C
:102940000E4DA8420BD00E4DA84208D00D4DA84206
:1029500005D00D4DA84202D00C4DA84204D14D69BE
:1029600022F4803242EA05224260046549688164AB
:10297000036230BD8FFFFEFF002C01400034014098
:102980000040014000440140004801400050014027
:1029900030B5046A026A22F4801202624268036D52
:1029A000134D24F400142B400D6843EA05230D89D0
:1029B00044EA05540F4DA8420ED00F4DA8420BD04B
:1029C0000E4DA84208D00E4DA84205D00D4DA8428C
:1029D00002D00D4DA84204D14D6922F4802242EA72
:1029E0008522426003654968C164046230BD00000D
:1029F000FF8FFFFE002C01400034014000400140E9
:102A000000440140004801400050014010B5036AF5
:102A1000046A24F001040462846924F0F00444EAA6
:102A2000021423F00A020A438461026210BD10B549
:102A3000036A046A24F010040462846923F0A0038A
:102A400024F4704444EA023243EA011182610162D3
:102A500010BD000030B5416EB9B10268916892684E
:102A6000C1F342610B4B520F9C5CE50003F108047B
:102A7000A25CB5FBF2F2A0F86A205A5C615CD2005D
:102A8000B2FBF1F1A0F8681030BD0121A0F86A1086
:102A9000F8E70000D637000890F82810090706D597
:102AA00001684A68836B22F400421A434A6090F836
:102AB0002810C90706D001684A68C36A22F40032A8
:102AC0001A434A6090F82810890706D501684A68B9
:102AD000036B22F480321A434A6090F828104907A9
:102AE00006D501684A68436B22F480221A434A6083
:102AF00090F82810C90606D501688A68C36B22F4CD
:102B000080521A438A6090F82810890606D5016819
:102B10008A68036C22F400521A438A6090F82810E5
:102B2000490611D501684A68436C22F480121A43A1
:102B30004A60416CB1F5801F06D101684A68836C18
:102B400022F4C0021A434A6090F82810090606D5FC
:102B500001684A68C06C22F4002202434A60704750
:102B60002DE9F84300260446C0F89060FDF734FED6
:102B70008046206800684FF0200500076FF07E4710
:102B800013D54346002229042046009700F0AEFCEE
:102B900058B1216851E8000F20F0800041E80002A0
:102BA000002AF6D1C4F8885021E020680068400768
:102BB00022D5434600224FF480012046009700F0C2
:102BC00095FCC8B1216851E8000F20F4907041E8ED
:102BD0000002002AF6D12068083050E8001F21F0DA
:102BE000010140E80012002AF5D1C4F88C5084F8A5
:102BF00084600320BDE8F883C4F88850C4F88C5082
:102C000044F86C6F666026760020F3E710B5806AA2
:102C10000021A0F85E10A0F85610FEF7FAFF10BDD4
:102C200010B5026852E8001F21F4907142E80013C9
:102C3000002BF6D10E4B0268083252E8001F1940F3
:102C400042E80014002CF6D1C16E012908D10168B8
:102C500051E8002F22F0100241E80023002BF6D1AA
:102C60002021C0F88C100021C166416710BD000012
:102C7000FEFFFFEF10B5B0F86020D0F88C3001688F
:102C8000222B04D0886940F00800886110BD496A91
:102C9000836D11401980816D891C8165B0F85E10CB
:102CA000491EA0F85E10B0F85E100029EED102684F
:102CB00052E8001F21F4907142E80013002BF6D176
:102CC0000168083151E8002F22F0010241E8002399
:102CD000002BF5D12021C0F88C100021416701673D
:102CE000154B02689A420BD05268120208D503684D
:102CF00053E8002F22F0806243E80024002CF6D134
:102D0000C26E012A02D0FFF7B9F910BDC166026890
:102D100052E8001F21F0100142E80013002BF6D109
:102D20000168CA69D243D20601D410220A62B0F8FF
:102D30005C10FEF70BFF10BD008000402DE9F0474E
:102D40000446B0F860600068C569D0F800A0D0F80B
:102D50000880D4F88C10222905D0816941F008013F
:102D60008161BDE8F087B4F868704FF0000975E044
:102D70002068406AA16D30400880A06D801CA0656D
:102D8000B4F85E00401EA4F85E002068C5696907BB
:102D900030D0E9070AD05FEACA5107D501210162A4
:102DA000D4F8900040F00100C4F89000A8070BD5BB
:102DB0005FEAC87008D0216802200862D4F8900049
:102DC00040F00400C4F8900068070BD55FEAC870B3
:102DD00008D0216804200862D4F8900040F0020076
:102DE000C4F89000D4F8900020B12046FEF711FFFF
:102DF000C4F89090B4F85E0080BB216851E8000FE1
:102E000020F4807041E80002002AF6D1304A2068A0
:102E1000083050E8001F114040E80013002BF6D1A5
:102E20002020C4F88C00C4F874904946C4F870900F
:102E3000284A206890420BD04068000208D52268DA
:102E400052E8000F20F0806342E800300028F6D1FD
:102E5000E06E012825D02046FFF710F90FB1A80633
:102E600086D4B4F85E0000283FF47BAFB4F8681055
:102E700081427FF676AF2068083050E8001F21F0CD
:102E8000805140E80012002AF5D11348606721689C
:102E900051E8000F40F0200041E80002002AF6D17E
:102EA0005FE7E166216851E8000F20F0100041E87B
:102EB0000002002AF6D12068C169C943C90601D4BD
:102EC00010210162B4F85C102046FEF73FFEC5E712
:102ED000FEFFFFEF00800040752C000810B5B0F831
:102EE0006020D0F88C300168222B04D0886940F033
:102EF0000800886110BD496A1140826D1170816DB2
:102F0000491C8165B0F85E10491EA0F85E10B0F84B
:102F10005E100029EED1016851E8002F22F4907272
:102F200041E80023002BF6D10168083151E8002F59
:102F300022F0010241E80023002BF5D12021C0F846
:102F40008C10002141670167154B02689A420BD033
:102F50005268120208D5036853E8002F22F08062FD
:102F600043E80024002CF6D1C26E012A02D0FFF7FC
:102F700085F810BDC166026852E8001F21F01001FB
:102F800042E80013002BF6D10168CA69D243D20689
:102F900001D410220A62B0F85C10FEF7D7FD10BD14
:102FA000008000402DE9F0470446B0F860600068FA
:102FB000C569D0F800A0D0F80880D4F88C10222978
:102FC00005D0816941F008018161BDE8F087B4F85E
:102FD00068704FF0000975E02068406AA16D3040CC
:102FE0000870A06D401CA065B4F85E00401EA4F8F7
:102FF0005E002068C569690730D0E9070AD05FEA3A
:10300000CA5107D501210162D4F8900040F00100B7
:10301000C4F89000A8070BD55FEAC87008D02168F3
:1030200002200862D4F8900040F00400C4F8900038
:1030300068070BD55FEAC87008D0216804200862D1
:10304000D4F8900040F00200C4F89000D4F890004A
:1030500020B12046FEF7DDFDC4F89090B4F85E0084
:1030600080BB216851E8000F20F4807041E8000225
:10307000002AF6D1304A2068083050E8001F11407D
:1030800040E80013002BF6D12020C4F88C00C4F8CF
:1030900074904A46C4F870902849206888420BD042
:1030A0004068000208D5216851E8000F20F08060D8
:1030B00041E80003002BF6D1E06E012825D0204620
:1030C000FEF7DCFF0FB1A80686D4B4F85E00002836
:1030D0003FF47BAFB4F8681081427FF676AF20688A
:1030E000083050E8001F21F0805140E80012002A0B
:1030F000F5D113486067206850E8001F41F02001B7
:1031000040E80012002AF6D15FE7E266216851E844
:10311000000F20F0100041E80002002AF6D12068DC
:10312000C169C943C90601D410210162B4F85C1019
:103130002046FEF70BFDC5E7FEFFFFEF00800040D5
:10314000DD2E00082DE9F0410446016880682269FF
:10315000E3691043626900251A431043DFF84CC24B
:103160000A68934B1A4002430A6020684168E2688B
:1031700021F44051114341602168A069614501D0AB
:10318000226A10438A688B4B1A4002438A60206887
:10319000C16A626A21F00F011143C1628649236846
:1031A00086488B420DD1D0F8880010F0030006D07D
:1031B000012867D0022854D0032851D164E00120AF
:1031C0004FE07F498B420BD1D0F8880010F00C0003
:1031D00047D0042845D0082852D00C2840D153E0CD
:1031E00078498B420BD1D0F8880010F0300038D0ED
:1031F000102847D0202843D0302831D144E07249EC
:103200008B420BD1D0F8880010F0C00029D04028A4
:1032100038D0802834D0C02822D135E06B498B4289
:103220000ED1D0F8880010F440701AD0B0F5807F2D
:1032300028D0B0F5007F23D0B0F5407F10D123E037
:1032400063450DD1D0F8880010F4406009D0B0F586
:10325000806F17D0B0F5006F12D0B0F5406F13D06B
:1032600010205B4A5B4F00264FF40041634539D183
:1032700060B102280DD004280DD0082831D10EE00D
:103280000220EEE70420ECE70820EAE7FDF710FE55
:1032900003E0114603E0FDF72FFE01007BD0606ADA
:1032A00037F810206768B1FBF2F007EB4703834261
:1032B00069D8B0EB073F66D8002308461946FCF7EB
:1032C000FBFF090241EA10610202780810187141FF
:1032D0003A460023FCF7F0FF3F4AA0F540719142C7
:1032E00057D950E0E3694FF6EF788B422BD109288C
:1032F00049D2DFE800F005080D48254848480E008F
:10330000FDF7D6FD01E0FDF7E5FD010001D142E04A
:103310001146606A37F81000B1FBF0F041006068B8
:1033200001EB5001B1FBF0F1A1F1100040452AD8AA
:103330004FF6F07201EA0200C1F34201084328E0AF
:10334000FDF7DAFDE1E709281DD2DFE800F0050806
:103350000D1C1E1C1C1C0E00FDF7AAFD01E0FDF754
:10336000B9FD010001D116E01146606A37F810007E
:10337000B1FBF0F1606801EB5001B1FBF0F0A0F19E
:103380001001414504D9012505E0FDF7B5FDE8E749
:1033900080B22168C8600120A4F86A0024F8680F90
:1033A0002846E6602661BDE8F0810000008000400C
:1033B000F369FFCFFFF4FF11003801400010024015
:1033C0000044004000480040004C004000500040D5
:1033D0000024F400BE370008FFFC0F0070B58165C3
:1033E000A0F85C20A0F85E200023436781684FF4BA
:1033F0008056FF24B14204D10169F9B940F2FF11AE
:1034000022E07F25C1B1B1F1805F1AD0A0F8603011
:10341000C0F890302221C0F88C100168083151E8C2
:10342000003F43F0010341E80034002CF5D1416E28
:10343000B1F1005F0ED031E0016941B9A0F8604000
:10344000E6E7016919B13F21A0F86010E0E7A0F8B4
:103450006050DDE7B0F8681091421FD88168B14232
:1034600001D10169B9B11D494167016941B10268E2
:1034700052E8001F41F4807142E80013002BF6D19E
:103480000168083151E8002F42F0805241E80023E2
:10349000002BF5D120E012494167F1E78168B14284
:1034A00001D1016969B10F494167016959B10268E8
:1034B00052E8001F41F4907142E80013002BF6D14E
:1034C0000AE009494167026852E8001F41F0200103
:1034D00042E80013002BF6D1002070BDA52F000894
:1034E0003D2D0008DD2E0008752C00082DE9F04761
:1034F000994617460D4604464FF00008089E33E0F3
:10350000701C31D0FDF768F9A0EB0900B04218D863
:10351000BEB120680168490726D5802D24D0402DF2
:1035200022D0C169C94309070DD408250562204688
:10353000FFF776FBC4F8905084F884800120BDE842
:10354000F0870320FBE7C069C04300050CD4216865
:103550004FF4006008622046FFF762FB2020C4F8A9
:10356000900084F88480ECE72068C06935EA0000A8
:1035700004D00020B842C3D00020E0E70120F9E7E2
:103580000148FEF747BB0000D40000200148FEF7C9
:1035900041BB000068010020FEE70907090E002872
:1035A00004DB00F1E02080F80014704700F00F0009
:1035B00000F1E02080F8141D70470000FDF71AF9B3
:1035C000FEF792FFFEF7B4FDFEF720FFFEF752FF75
:1035D000FEF734FEFEF7A2FE11226F496F48FEF798
:1035E0008EFA6F4F01266F4C4FF4806A4FF4006BD8
:1035F00041F218484FF48079002520780128FCD149
:10360000654931F8030F42BA6281488840BAA08107
:10361000C98849BAE181A3889B1A2382E3881B1ACF
:10362000638223895B1AA382FC2A02D1404500D120
:10363000A1B1012208213846FDF7C9F86089FC28AC
:1036400030D0B4F9100011281FD3002808DA002266
:1036500051463846FDF7BBF8002209E00022E9E7B1
:1036600010281BDD012251463846FDF7B0F8012233
:1036700059463846FDF7ABF800214B48FEF704F9F0
:1036800004214948FEF700F908E066700021464829
:10369000FEF79AF904214448FEF796F9607801286C
:1036A00009D03AE000214048FEF78EF904213E4857
:1036B000FEF78AF96670A18941452CD0B4F9120051
:1036C00011281DD3002806DA002251463846FDF79E
:1036D0007EF8012207E010281FDD012251463846FE
:1036E000FDF775F8002259463846FDF770F80021BD
:1036F0002D48FEF7C9F804212B48FEF7C5F80CE069
:103700006570A67000212848FEF75EF9042126485E
:10371000FEF75AF901E06570A67010213846FDF7F2
:1037200051F840B91E20FCF717FF10213846FDF76D
:1037300049F800B9E670A078012817D1E08910B3E4
:10374000E570B4F9140048451BD9002801DA0122BC
:1037500002E048450ADD00224FF400414FF090405E
:10376000FDF735F800211148FEF78EF86423112289
:1037700009490F48FEF783FC6420FCF7EDFE257035
:103780003BE7A57002E0E0780128E0D1002107487E
:10379000FEF71AF9EAE7000028000020680100207F
:1037A0000008004800000020880000203C000020A5
:1037B000D40000204FF04070E1EE100A7047010085
:1037C00002000400060008000A000C00100020009F
:1037D000400080000001010101030701000008040E
:1037E00002040801010100000000000000000102C5
:1037F000030406070809000000000102030400009A
:1038000020380008000000202800000014020008F2
:10381000483800082800002038080000300200085E
:1038200000000000600160010018000000000000BE
:103830000000000000000000100000000100000077
:08384000000000000024F40068
:04000005080001D915
:00000001FF
